{
	"FundMe/fundme.sol": {
		"FundMe": {
			"abi": [
				{
					"inputs": [],
					"stateMutability": "nonpayable",
					"type": "constructor"
				},
				{
					"inputs": [],
					"name": "NotOwner",
					"type": "error"
				},
				{
					"stateMutability": "payable",
					"type": "fallback"
				},
				{
					"inputs": [],
					"name": "I_owner",
					"outputs": [
						{
							"internalType": "address",
							"name": "",
							"type": "address"
						}
					],
					"stateMutability": "view",
					"type": "function"
				},
				{
					"inputs": [
						{
							"internalType": "address",
							"name": "addressOfFunders",
							"type": "address"
						}
					],
					"name": "addressToAmountFunded",
					"outputs": [
						{
							"internalType": "uint256",
							"name": "AmountFundedbyFunders",
							"type": "uint256"
						}
					],
					"stateMutability": "view",
					"type": "function"
				},
				{
					"inputs": [],
					"name": "fund",
					"outputs": [],
					"stateMutability": "payable",
					"type": "function"
				},
				{
					"inputs": [
						{
							"internalType": "uint256",
							"name": "",
							"type": "uint256"
						}
					],
					"name": "funders",
					"outputs": [
						{
							"internalType": "address",
							"name": "",
							"type": "address"
						}
					],
					"stateMutability": "view",
					"type": "function"
				},
				{
					"inputs": [],
					"name": "withdraw",
					"outputs": [],
					"stateMutability": "nonpayable",
					"type": "function"
				},
				{
					"stateMutability": "payable",
					"type": "receive"
				}
			],
			"devdoc": {
				"kind": "dev",
				"methods": {},
				"version": 1
			},
			"evm": {
				"assembly": "    /* \"FundMe/fundme.sol\":140:1912  contract FundMe{... */\n  mstore(0x40, 0xa0)\n    /* \"FundMe/fundme.sol\":550:602  constructor() {... */\n  callvalue\n  dup1\n  iszero\n  tag_1\n  jumpi\n  0x00\n  dup1\n  revert\ntag_1:\n  pop\n    /* \"FundMe/fundme.sol\":584:594  msg.sender */\n  caller\n    /* \"FundMe/fundme.sol\":574:594  I_owner = msg.sender */\n  0xffffffffffffffffffffffffffffffffffffffff\n  and\n  0x80\n  dup2\n  0xffffffffffffffffffffffffffffffffffffffff\n  and\n  dup2\n  mstore\n  pop\n  pop\n    /* \"FundMe/fundme.sol\":140:1912  contract FundMe{... */\n  mload(0x80)\n  codecopy(0x00, dataOffset(sub_0), dataSize(sub_0))\n  0x00\n  assignImmutable(\"0x35bb2e240092263378f77ea1e9c278099a33b604c4c4e26d13ea227e8bb74470\")\n  return(0x00, dataSize(sub_0))\nstop\n\nsub_0: assembly {\n        /* \"FundMe/fundme.sol\":140:1912  contract FundMe{... */\n      mstore(0x40, 0x80)\n      jumpi(tag_1, lt(calldatasize, 0x04))\n      shr(0xe0, calldataload(0x00))\n      dup1\n      0x3ccfd60b\n      eq\n      tag_3\n      jumpi\n      dup1\n      0x3e47d6f3\n      eq\n      tag_4\n      jumpi\n      dup1\n      0xb60d4288\n      eq\n      tag_5\n      jumpi\n      dup1\n      0xc698d625\n      eq\n      tag_6\n      jumpi\n      dup1\n      0xdc0d3dff\n      eq\n      tag_7\n      jumpi\n      jump(tag_2)\n    tag_1:\n      jumpi(tag_2, calldatasize)\n        /* \"FundMe/fundme.sol\":1834:1840  fund() */\n      tag_10\n        /* \"FundMe/fundme.sol\":1834:1838  fund */\n      tag_11\n        /* \"FundMe/fundme.sol\":1834:1840  fund() */\n      jump\t// in\n    tag_10:\n        /* \"FundMe/fundme.sol\":140:1912  contract FundMe{... */\n      stop\n    tag_2:\n        /* \"FundMe/fundme.sol\":1890:1896  fund() */\n      tag_14\n        /* \"FundMe/fundme.sol\":1890:1894  fund */\n      tag_11\n        /* \"FundMe/fundme.sol\":1890:1896  fund() */\n      jump\t// in\n    tag_14:\n        /* \"FundMe/fundme.sol\":140:1912  contract FundMe{... */\n      stop\n        /* \"FundMe/fundme.sol\":1334:1791  function withdraw() public onlyOwner{... */\n    tag_3:\n      callvalue\n      dup1\n      iszero\n      tag_15\n      jumpi\n      0x00\n      dup1\n      revert\n    tag_15:\n      pop\n      tag_16\n      tag_17\n      jump\t// in\n    tag_16:\n      stop\n        /* \"FundMe/fundme.sol\":408:502  mapping(address addressOfFunders=> uint256 AmountFundedbyFunders) public addressToAmountFunded */\n    tag_4:\n      callvalue\n      dup1\n      iszero\n      tag_18\n      jumpi\n      0x00\n      dup1\n      revert\n    tag_18:\n      pop\n      tag_19\n      0x04\n      dup1\n      calldatasize\n      sub\n      dup2\n      add\n      swap1\n      tag_20\n      swap2\n      swap1\n      tag_21\n      jump\t// in\n    tag_20:\n      tag_22\n      jump\t// in\n    tag_19:\n      mload(0x40)\n      tag_23\n      swap2\n      swap1\n      tag_24\n      jump\t// in\n    tag_23:\n      mload(0x40)\n      dup1\n      swap2\n      sub\n      swap1\n      return\n        /* \"FundMe/fundme.sol\":901:1326  function fund()public payable{... */\n    tag_5:\n      tag_25\n      tag_11\n      jump\t// in\n    tag_25:\n      stop\n        /* \"FundMe/fundme.sol\":509:541  address public immutable I_owner */\n    tag_6:\n      callvalue\n      dup1\n      iszero\n      tag_26\n      jumpi\n      0x00\n      dup1\n      revert\n    tag_26:\n      pop\n      tag_27\n      tag_28\n      jump\t// in\n    tag_27:\n      mload(0x40)\n      tag_29\n      swap2\n      swap1\n      tag_30\n      jump\t// in\n    tag_29:\n      mload(0x40)\n      dup1\n      swap2\n      sub\n      swap1\n      return\n        /* \"FundMe/fundme.sol\":314:338  address[] public funders */\n    tag_7:\n      callvalue\n      dup1\n      iszero\n      tag_31\n      jumpi\n      0x00\n      dup1\n      revert\n    tag_31:\n      pop\n      tag_32\n      0x04\n      dup1\n      calldatasize\n      sub\n      dup2\n      add\n      swap1\n      tag_33\n      swap2\n      swap1\n      tag_34\n      jump\t// in\n    tag_33:\n      tag_35\n      jump\t// in\n    tag_32:\n      mload(0x40)\n      tag_36\n      swap2\n      swap1\n      tag_30\n      jump\t// in\n    tag_36:\n      mload(0x40)\n      dup1\n      swap2\n      sub\n      swap1\n      return\n        /* \"FundMe/fundme.sol\":901:1326  function fund()public payable{... */\n    tag_11:\n        /* \"FundMe/fundme.sol\":193:197  5e18 */\n      0x4563918244f40000\n        /* \"FundMe/fundme.sol\":949:978  msg.value.getConversionRate() */\n      tag_38\n        /* \"FundMe/fundme.sol\":949:958  msg.value */\n      callvalue\n        /* \"FundMe/fundme.sol\":949:976  msg.value.getConversionRate */\n      tag_39\n        /* \"FundMe/fundme.sol\":949:978  msg.value.getConversionRate() */\n      jump\t// in\n    tag_38:\n        /* \"FundMe/fundme.sol\":949:993  msg.value.getConversionRate() >= MINIMUM_USD */\n      lt\n      iszero\n        /* \"FundMe/fundme.sol\":941:1028  require(msg.value.getConversionRate() >= MINIMUM_USD, \"Value not greater than 1 ether\") */\n      tag_40\n      jumpi\n      mload(0x40)\n      0x08c379a000000000000000000000000000000000000000000000000000000000\n      dup2\n      mstore\n      0x04\n      add\n      tag_41\n      swap1\n      tag_42\n      jump\t// in\n    tag_41:\n      mload(0x40)\n      dup1\n      swap2\n      sub\n      swap1\n      revert\n    tag_40:\n        /* \"FundMe/fundme.sol\":1037:1044  funders */\n      0x00\n        /* \"FundMe/fundme.sol\":1050:1060  msg.sender */\n      caller\n        /* \"FundMe/fundme.sol\":1037:1061  funders.push(msg.sender) */\n      swap1\n      dup1\n      0x01\n      dup2\n      sload\n      add\n      dup1\n      dup3\n      sstore\n      dup1\n      swap2\n      pop\n      pop\n      0x01\n      swap1\n      sub\n      swap1\n      0x00\n      mstore\n      keccak256(0x00, 0x20)\n      add\n      0x00\n      swap1\n      swap2\n      swap1\n      swap2\n      swap1\n      swap2\n      0x0100\n      exp\n      dup2\n      sload\n      dup2\n      0xffffffffffffffffffffffffffffffffffffffff\n      mul\n      not\n      and\n      swap1\n      dup4\n      0xffffffffffffffffffffffffffffffffffffffff\n      and\n      mul\n      or\n      swap1\n      sstore\n      pop\n        /* \"FundMe/fundme.sol\":1210:1219  msg.value */\n      callvalue\n        /* \"FundMe/fundme.sol\":1174:1195  addressToAmountFunded */\n      0x01\n        /* \"FundMe/fundme.sol\":1174:1207  addressToAmountFunded[msg.sender] */\n      0x00\n        /* \"FundMe/fundme.sol\":1196:1206  msg.sender */\n      caller\n        /* \"FundMe/fundme.sol\":1174:1207  addressToAmountFunded[msg.sender] */\n      0xffffffffffffffffffffffffffffffffffffffff\n      and\n      0xffffffffffffffffffffffffffffffffffffffff\n      and\n      dup2\n      mstore\n      0x20\n      add\n      swap1\n      dup2\n      mstore\n      0x20\n      add\n      0x00\n      keccak256\n      0x00\n        /* \"FundMe/fundme.sol\":1174:1219  addressToAmountFunded[msg.sender]+= msg.value */\n      dup3\n      dup3\n      sload\n      tag_44\n      swap2\n      swap1\n      tag_45\n      jump\t// in\n    tag_44:\n      swap3\n      pop\n      pop\n      dup2\n      swap1\n      sstore\n      pop\n        /* \"FundMe/fundme.sol\":901:1326  function fund()public payable{... */\n      jump\t// out\n        /* \"FundMe/fundme.sol\":1334:1791  function withdraw() public onlyOwner{... */\n    tag_17:\n        /* \"FundMe/fundme.sol\":817:824  I_owner */\n      immutable(\"0x35bb2e240092263378f77ea1e9c278099a33b604c4c4e26d13ea227e8bb74470\")\n        /* \"FundMe/fundme.sol\":803:824  msg.sender != I_owner */\n      0xffffffffffffffffffffffffffffffffffffffff\n      and\n        /* \"FundMe/fundme.sol\":803:813  msg.sender */\n      caller\n        /* \"FundMe/fundme.sol\":803:824  msg.sender != I_owner */\n      0xffffffffffffffffffffffffffffffffffffffff\n      and\n      eq\n        /* \"FundMe/fundme.sol\":800:870  if(msg.sender != I_owner){ ... */\n      tag_47\n      jumpi\n        /* \"FundMe/fundme.sol\":848:858  NotOwner() */\n      mload(0x40)\n      0x30cd747100000000000000000000000000000000000000000000000000000000\n      dup2\n      mstore\n      0x04\n      add\n      mload(0x40)\n      dup1\n      swap2\n      sub\n      swap1\n      revert\n        /* \"FundMe/fundme.sol\":800:870  if(msg.sender != I_owner){ ... */\n    tag_47:\n        /* \"FundMe/fundme.sol\":1386:1406  uint256 fundersIndex */\n      0x00\n        /* \"FundMe/fundme.sol\":1382:1572  for(uint256 fundersIndex = 0; fundersIndex < funders.length; fundersIndex++){... */\n    tag_49:\n        /* \"FundMe/fundme.sol\":1427:1434  funders */\n      0x00\n        /* \"FundMe/fundme.sol\":1427:1441  funders.length */\n      dup1\n      sload\n      swap1\n      pop\n        /* \"FundMe/fundme.sol\":1412:1424  fundersIndex */\n      dup2\n        /* \"FundMe/fundme.sol\":1412:1441  fundersIndex < funders.length */\n      lt\n        /* \"FundMe/fundme.sol\":1382:1572  for(uint256 fundersIndex = 0; fundersIndex < funders.length; fundersIndex++){... */\n      iszero\n      tag_50\n      jumpi\n        /* \"FundMe/fundme.sol\":1470:1488  address getaddress */\n      0x00\n        /* \"FundMe/fundme.sol\":1491:1498  funders */\n      dup1\n        /* \"FundMe/fundme.sol\":1499:1511  fundersIndex */\n      dup3\n        /* \"FundMe/fundme.sol\":1491:1512  funders[fundersIndex] */\n      dup2\n      sload\n      dup2\n      lt\n      tag_52\n      jumpi\n      tag_53\n      tag_54\n      jump\t// in\n    tag_53:\n    tag_52:\n      swap1\n      0x00\n      mstore\n      keccak256(0x00, 0x20)\n      add\n      0x00\n      swap1\n      sload\n      swap1\n      0x0100\n      exp\n      swap1\n      div\n      0xffffffffffffffffffffffffffffffffffffffff\n      and\n        /* \"FundMe/fundme.sol\":1470:1512  address getaddress = funders[fundersIndex] */\n      swap1\n      pop\n        /* \"FundMe/fundme.sol\":1560:1561  0 */\n      0x00\n        /* \"FundMe/fundme.sol\":1526:1547  addressToAmountFunded */\n      0x01\n        /* \"FundMe/fundme.sol\":1526:1559  addressToAmountFunded[getaddress] */\n      0x00\n        /* \"FundMe/fundme.sol\":1548:1558  getaddress */\n      dup4\n        /* \"FundMe/fundme.sol\":1526:1559  addressToAmountFunded[getaddress] */\n      0xffffffffffffffffffffffffffffffffffffffff\n      and\n      0xffffffffffffffffffffffffffffffffffffffff\n      and\n      dup2\n      mstore\n      0x20\n      add\n      swap1\n      dup2\n      mstore\n      0x20\n      add\n      0x00\n      keccak256\n        /* \"FundMe/fundme.sol\":1526:1561  addressToAmountFunded[getaddress]=0 */\n      dup2\n      swap1\n      sstore\n      pop\n        /* \"FundMe/fundme.sol\":1458:1572  {... */\n      pop\n        /* \"FundMe/fundme.sol\":1443:1457  fundersIndex++ */\n      dup1\n      dup1\n      0x01\n      add\n      swap2\n      pop\n      pop\n        /* \"FundMe/fundme.sol\":1382:1572  for(uint256 fundersIndex = 0; fundersIndex < funders.length; fundersIndex++){... */\n      jump(tag_49)\n    tag_50:\n      pop\n        /* \"FundMe/fundme.sol\":1605:1606  0 */\n      0x00\n        /* \"FundMe/fundme.sol\":1591:1607  new address[](0) */\n      0xffffffffffffffff\n      dup2\n      gt\n      iszero\n      tag_56\n      jumpi\n      tag_57\n      tag_58\n      jump\t// in\n    tag_57:\n    tag_56:\n      mload(0x40)\n      swap1\n      dup1\n      dup3\n      mstore\n      dup1\n      0x20\n      mul\n      0x20\n      add\n      dup3\n      add\n      0x40\n      mstore\n      dup1\n      iszero\n      tag_59\n      jumpi\n      dup2\n      0x20\n      add\n      0x20\n      dup3\n      mul\n      dup1\n      calldatasize\n      dup4\n      calldatacopy\n      dup1\n      dup3\n      add\n      swap2\n      pop\n      pop\n      swap1\n      pop\n    tag_59:\n      pop\n        /* \"FundMe/fundme.sol\":1581:1588  funders */\n      0x00\n        /* \"FundMe/fundme.sol\":1581:1607  funders = new address[](0) */\n      swap1\n      dup1\n      mload\n      swap1\n      0x20\n      add\n      swap1\n      tag_60\n      swap3\n      swap2\n      swap1\n      tag_61\n      jump\t// in\n    tag_60:\n      pop\n        /* \"FundMe/fundme.sol\":1656:1672  bool callSuccess */\n      0x00\n        /* \"FundMe/fundme.sol\":1685:1695  msg.sender */\n      caller\n        /* \"FundMe/fundme.sol\":1677:1701  payable(msg.sender).call */\n      0xffffffffffffffffffffffffffffffffffffffff\n      and\n        /* \"FundMe/fundme.sol\":1708:1729  address(this).balance */\n      selfbalance\n        /* \"FundMe/fundme.sol\":1677:1734  payable(msg.sender).call{value:address(this).balance}(\"\") */\n      mload(0x40)\n      tag_62\n      swap1\n      tag_63\n      jump\t// in\n    tag_62:\n      0x00\n      mload(0x40)\n      dup1\n      dup4\n      sub\n      dup2\n      dup6\n      dup8\n      gas\n      call\n      swap3\n      pop\n      pop\n      pop\n      returndatasize\n      dup1\n      0x00\n      dup2\n      eq\n      tag_66\n      jumpi\n      mload(0x40)\n      swap2\n      pop\n      and(add(returndatasize, 0x3f), not(0x1f))\n      dup3\n      add\n      0x40\n      mstore\n      returndatasize\n      dup3\n      mstore\n      returndatasize\n      0x00\n      0x20\n      dup5\n      add\n      returndatacopy\n      jump(tag_65)\n    tag_66:\n      0x60\n      swap2\n      pop\n    tag_65:\n      pop\n        /* \"FundMe/fundme.sol\":1655:1734  (bool callSuccess,) = payable(msg.sender).call{value:address(this).balance}(\"\") */\n      pop\n      swap1\n      pop\n        /* \"FundMe/fundme.sol\":1754:1765  callSuccess */\n      dup1\n        /* \"FundMe/fundme.sol\":1746:1781  require(callSuccess, \"Call Failed\") */\n      tag_67\n      jumpi\n      mload(0x40)\n      0x08c379a000000000000000000000000000000000000000000000000000000000\n      dup2\n      mstore\n      0x04\n      add\n      tag_68\n      swap1\n      tag_69\n      jump\t// in\n    tag_68:\n      mload(0x40)\n      dup1\n      swap2\n      sub\n      swap1\n      revert\n    tag_67:\n        /* \"FundMe/fundme.sol\":1370:1791  {... */\n      pop\n        /* \"FundMe/fundme.sol\":1334:1791  function withdraw() public onlyOwner{... */\n      jump\t// out\n        /* \"FundMe/fundme.sol\":408:502  mapping(address addressOfFunders=> uint256 AmountFundedbyFunders) public addressToAmountFunded */\n    tag_22:\n      mstore(0x20, 0x01)\n      dup1\n      0x00\n      mstore\n      keccak256(0x00, 0x40)\n      0x00\n      swap2\n      pop\n      swap1\n      pop\n      sload\n      dup2\n      jump\t// out\n        /* \"FundMe/fundme.sol\":509:541  address public immutable I_owner */\n    tag_28:\n      immutable(\"0x35bb2e240092263378f77ea1e9c278099a33b604c4c4e26d13ea227e8bb74470\")\n      dup2\n      jump\t// out\n        /* \"FundMe/fundme.sol\":314:338  address[] public funders */\n    tag_35:\n      0x00\n      dup2\n      dup2\n      sload\n      dup2\n      lt\n      tag_70\n      jumpi\n      0x00\n      dup1\n      revert\n    tag_70:\n      swap1\n      0x00\n      mstore\n      keccak256(0x00, 0x20)\n      add\n      0x00\n      swap2\n      pop\n      sload\n      swap1\n      0x0100\n      exp\n      swap1\n      div\n      0xffffffffffffffffffffffffffffffffffffffff\n      and\n      dup2\n      jump\t// out\n        /* \"FundMe/priceconverter.sol\":672:1069  function getConversionRate(uint256 ethAmount)internal view returns(uint256) { // Convert the value of etherum in terms on USD base of the price... */\n    tag_39:\n        /* \"FundMe/priceconverter.sol\":739:746  uint256 */\n      0x00\n        /* \"FundMe/priceconverter.sol\":872:888  uint256 ethprice */\n      dup1\n        /* \"FundMe/priceconverter.sol\":891:901  getprice() */\n      tag_73\n        /* \"FundMe/priceconverter.sol\":891:899  getprice */\n      tag_74\n        /* \"FundMe/priceconverter.sol\":891:901  getprice() */\n      jump\t// in\n    tag_73:\n        /* \"FundMe/priceconverter.sol\":872:901  uint256 ethprice = getprice() */\n      swap1\n      pop\n        /* \"FundMe/priceconverter.sol\":976:998  uint256 ethAmountInUsd */\n      0x00\n        /* \"FundMe/priceconverter.sol\":1025:1029  1e18 */\n      0x0de0b6b3a7640000\n        /* \"FundMe/priceconverter.sol\":1013:1022  ethAmount */\n      dup5\n        /* \"FundMe/priceconverter.sol\":1002:1010  ethprice */\n      dup4\n        /* \"FundMe/priceconverter.sol\":1002:1022  ethprice * ethAmount */\n      tag_75\n      swap2\n      swap1\n      tag_76\n      jump\t// in\n    tag_75:\n        /* \"FundMe/priceconverter.sol\":1001:1029  (ethprice * ethAmount)/ 1e18 */\n      tag_77\n      swap2\n      swap1\n      tag_78\n      jump\t// in\n    tag_77:\n        /* \"FundMe/priceconverter.sol\":976:1029  uint256 ethAmountInUsd = (ethprice * ethAmount)/ 1e18 */\n      swap1\n      pop\n        /* \"FundMe/priceconverter.sol\":1045:1059  ethAmountInUsd */\n      dup1\n        /* \"FundMe/priceconverter.sol\":1038:1059  return ethAmountInUsd */\n      swap3\n      pop\n      pop\n      pop\n        /* \"FundMe/priceconverter.sol\":672:1069  function getConversionRate(uint256 ethAmount)internal view returns(uint256) { // Convert the value of etherum in terms on USD base of the price... */\n      swap2\n      swap1\n      pop\n      jump\t// out\n        /* \"FundMe/priceconverter.sol\":210:658  function getprice() internal view returns(uint256){//This is going to get the price of ether in USD... */\n    tag_74:\n        /* \"FundMe/priceconverter.sol\":252:259  uint256 */\n      0x00\n        /* \"FundMe/priceconverter.sol\":391:422  AggregatorV3Interface priceFeed */\n      dup1\n        /* \"FundMe/priceconverter.sol\":447:489  0xfEefF7c3fB57d18C5C6Cdd71e45D2D0b4F9377bF */\n      0xfeeff7c3fb57d18c5c6cdd71e45d2d0b4f9377bf\n        /* \"FundMe/priceconverter.sol\":391:490  AggregatorV3Interface priceFeed = AggregatorV3Interface(0xfEefF7c3fB57d18C5C6Cdd71e45D2D0b4F9377bF) */\n      swap1\n      pop\n        /* \"FundMe/priceconverter.sol\":502:514  int256 price */\n      0x00\n        /* \"FundMe/priceconverter.sol\":519:528  priceFeed */\n      dup2\n        /* \"FundMe/priceconverter.sol\":519:544  priceFeed.latestRoundData */\n      0xffffffffffffffffffffffffffffffffffffffff\n      and\n      0xfeaf968c\n        /* \"FundMe/priceconverter.sol\":519:546  priceFeed.latestRoundData() */\n      mload(0x40)\n      dup2\n      0xffffffff\n      and\n      0xe0\n      shl\n      dup2\n      mstore\n      0x04\n      add\n      0xa0\n      mload(0x40)\n      dup1\n      dup4\n      sub\n      dup2\n      dup7\n      gas\n      staticcall\n      iszero\n      dup1\n      iszero\n      tag_81\n      jumpi\n      returndatasize\n      0x00\n      dup1\n      returndatacopy\n      revert(0x00, returndatasize)\n    tag_81:\n      pop\n      pop\n      pop\n      pop\n      mload(0x40)\n      returndatasize\n      not(0x1f)\n      0x1f\n      dup3\n      add\n      and\n      dup3\n      add\n      dup1\n      0x40\n      mstore\n      pop\n      dup2\n      add\n      swap1\n      tag_82\n      swap2\n      swap1\n      tag_83\n      jump\t// in\n    tag_82:\n        /* \"FundMe/priceconverter.sol\":500:546  (,int256 price,,,)=priceFeed.latestRoundData() */\n      pop\n      pop\n      pop\n      swap2\n      pop\n      pop\n        /* \"FundMe/priceconverter.sol\":580:584  1e10 */\n      0x02540be400\n        /* \"FundMe/priceconverter.sol\":572:577  price */\n      dup2\n        /* \"FundMe/priceconverter.sol\":572:584  price * 1e10 */\n      tag_84\n      swap2\n      swap1\n      tag_85\n      jump\t// in\n    tag_84:\n        /* \"FundMe/priceconverter.sol\":557:586  return uint256(price * 1e10 ) */\n      swap3\n      pop\n      pop\n      pop\n        /* \"FundMe/priceconverter.sol\":210:658  function getprice() internal view returns(uint256){//This is going to get the price of ether in USD... */\n      swap1\n      jump\t// out\n    tag_61:\n      dup3\n      dup1\n      sload\n      dup3\n      dup3\n      sstore\n      swap1\n      0x00\n      mstore\n      keccak256(0x00, 0x20)\n      swap1\n      dup2\n      add\n      swap3\n      dup3\n      iszero\n      tag_86\n      jumpi\n      swap2\n      0x20\n      mul\n      dup3\n      add\n    tag_87:\n      dup3\n      dup2\n      gt\n      iszero\n      tag_88\n      jumpi\n      dup3\n      mload\n      dup3\n      exp(0x0100, 0x00)\n      dup2\n      sload\n      dup2\n      0xffffffffffffffffffffffffffffffffffffffff\n      mul\n      not\n      and\n      swap1\n      dup4\n      0xffffffffffffffffffffffffffffffffffffffff\n      and\n      mul\n      or\n      swap1\n      sstore\n      pop\n      swap2\n      0x20\n      add\n      swap2\n      swap1\n      0x01\n      add\n      swap1\n      jump(tag_87)\n    tag_88:\n    tag_86:\n      pop\n      swap1\n      pop\n      tag_89\n      swap2\n      swap1\n      tag_90\n      jump\t// in\n    tag_89:\n      pop\n      swap1\n      jump\t// out\n    tag_90:\n    tag_91:\n      dup1\n      dup3\n      gt\n      iszero\n      tag_92\n      jumpi\n      0x00\n      dup2\n      0x00\n      swap1\n      sstore\n      pop\n      0x01\n      add\n      jump(tag_91)\n    tag_92:\n      pop\n      swap1\n      jump\t// out\n        /* \"#utility.yul\":88:205   */\n    tag_94:\n        /* \"#utility.yul\":197:198   */\n      0x00\n        /* \"#utility.yul\":194:195   */\n      dup1\n        /* \"#utility.yul\":187:199   */\n      revert\n        /* \"#utility.yul\":334:460   */\n    tag_96:\n        /* \"#utility.yul\":371:378   */\n      0x00\n        /* \"#utility.yul\":411:453   */\n      0xffffffffffffffffffffffffffffffffffffffff\n        /* \"#utility.yul\":404:409   */\n      dup3\n        /* \"#utility.yul\":400:454   */\n      and\n        /* \"#utility.yul\":389:454   */\n      swap1\n      pop\n        /* \"#utility.yul\":334:460   */\n      swap2\n      swap1\n      pop\n      jump\t// out\n        /* \"#utility.yul\":466:562   */\n    tag_97:\n        /* \"#utility.yul\":503:510   */\n      0x00\n        /* \"#utility.yul\":532:556   */\n      tag_128\n        /* \"#utility.yul\":550:555   */\n      dup3\n        /* \"#utility.yul\":532:556   */\n      tag_96\n      jump\t// in\n    tag_128:\n        /* \"#utility.yul\":521:556   */\n      swap1\n      pop\n        /* \"#utility.yul\":466:562   */\n      swap2\n      swap1\n      pop\n      jump\t// out\n        /* \"#utility.yul\":568:690   */\n    tag_98:\n        /* \"#utility.yul\":641:665   */\n      tag_130\n        /* \"#utility.yul\":659:664   */\n      dup2\n        /* \"#utility.yul\":641:665   */\n      tag_97\n      jump\t// in\n    tag_130:\n        /* \"#utility.yul\":634:639   */\n      dup2\n        /* \"#utility.yul\":631:666   */\n      eq\n        /* \"#utility.yul\":621:684   */\n      tag_131\n      jumpi\n        /* \"#utility.yul\":680:681   */\n      0x00\n        /* \"#utility.yul\":677:678   */\n      dup1\n        /* \"#utility.yul\":670:682   */\n      revert\n        /* \"#utility.yul\":621:684   */\n    tag_131:\n        /* \"#utility.yul\":568:690   */\n      pop\n      jump\t// out\n        /* \"#utility.yul\":696:835   */\n    tag_99:\n        /* \"#utility.yul\":742:747   */\n      0x00\n        /* \"#utility.yul\":780:786   */\n      dup2\n        /* \"#utility.yul\":767:787   */\n      calldataload\n        /* \"#utility.yul\":758:787   */\n      swap1\n      pop\n        /* \"#utility.yul\":796:829   */\n      tag_133\n        /* \"#utility.yul\":823:828   */\n      dup2\n        /* \"#utility.yul\":796:829   */\n      tag_98\n      jump\t// in\n    tag_133:\n        /* \"#utility.yul\":696:835   */\n      swap3\n      swap2\n      pop\n      pop\n      jump\t// out\n        /* \"#utility.yul\":841:1170   */\n    tag_21:\n        /* \"#utility.yul\":900:906   */\n      0x00\n        /* \"#utility.yul\":949:951   */\n      0x20\n        /* \"#utility.yul\":937:946   */\n      dup3\n        /* \"#utility.yul\":928:935   */\n      dup5\n        /* \"#utility.yul\":924:947   */\n      sub\n        /* \"#utility.yul\":920:952   */\n      slt\n        /* \"#utility.yul\":917:1036   */\n      iszero\n      tag_135\n      jumpi\n        /* \"#utility.yul\":955:1034   */\n      tag_136\n      tag_94\n      jump\t// in\n    tag_136:\n        /* \"#utility.yul\":917:1036   */\n    tag_135:\n        /* \"#utility.yul\":1075:1076   */\n      0x00\n        /* \"#utility.yul\":1100:1153   */\n      tag_137\n        /* \"#utility.yul\":1145:1152   */\n      dup5\n        /* \"#utility.yul\":1136:1142   */\n      dup3\n        /* \"#utility.yul\":1125:1134   */\n      dup6\n        /* \"#utility.yul\":1121:1143   */\n      add\n        /* \"#utility.yul\":1100:1153   */\n      tag_99\n      jump\t// in\n    tag_137:\n        /* \"#utility.yul\":1090:1153   */\n      swap2\n      pop\n        /* \"#utility.yul\":1046:1163   */\n      pop\n        /* \"#utility.yul\":841:1170   */\n      swap3\n      swap2\n      pop\n      pop\n      jump\t// out\n        /* \"#utility.yul\":1176:1253   */\n    tag_100:\n        /* \"#utility.yul\":1213:1220   */\n      0x00\n        /* \"#utility.yul\":1242:1247   */\n      dup2\n        /* \"#utility.yul\":1231:1247   */\n      swap1\n      pop\n        /* \"#utility.yul\":1176:1253   */\n      swap2\n      swap1\n      pop\n      jump\t// out\n        /* \"#utility.yul\":1259:1377   */\n    tag_101:\n        /* \"#utility.yul\":1346:1370   */\n      tag_140\n        /* \"#utility.yul\":1364:1369   */\n      dup2\n        /* \"#utility.yul\":1346:1370   */\n      tag_100\n      jump\t// in\n    tag_140:\n        /* \"#utility.yul\":1341:1344   */\n      dup3\n        /* \"#utility.yul\":1334:1371   */\n      mstore\n        /* \"#utility.yul\":1259:1377   */\n      pop\n      pop\n      jump\t// out\n        /* \"#utility.yul\":1383:1605   */\n    tag_24:\n        /* \"#utility.yul\":1476:1480   */\n      0x00\n        /* \"#utility.yul\":1514:1516   */\n      0x20\n        /* \"#utility.yul\":1503:1512   */\n      dup3\n        /* \"#utility.yul\":1499:1517   */\n      add\n        /* \"#utility.yul\":1491:1517   */\n      swap1\n      pop\n        /* \"#utility.yul\":1527:1598   */\n      tag_142\n        /* \"#utility.yul\":1595:1596   */\n      0x00\n        /* \"#utility.yul\":1584:1593   */\n      dup4\n        /* \"#utility.yul\":1580:1597   */\n      add\n        /* \"#utility.yul\":1571:1577   */\n      dup5\n        /* \"#utility.yul\":1527:1598   */\n      tag_101\n      jump\t// in\n    tag_142:\n        /* \"#utility.yul\":1383:1605   */\n      swap3\n      swap2\n      pop\n      pop\n      jump\t// out\n        /* \"#utility.yul\":1611:1729   */\n    tag_102:\n        /* \"#utility.yul\":1698:1722   */\n      tag_144\n        /* \"#utility.yul\":1716:1721   */\n      dup2\n        /* \"#utility.yul\":1698:1722   */\n      tag_97\n      jump\t// in\n    tag_144:\n        /* \"#utility.yul\":1693:1696   */\n      dup3\n        /* \"#utility.yul\":1686:1723   */\n      mstore\n        /* \"#utility.yul\":1611:1729   */\n      pop\n      pop\n      jump\t// out\n        /* \"#utility.yul\":1735:1957   */\n    tag_30:\n        /* \"#utility.yul\":1828:1832   */\n      0x00\n        /* \"#utility.yul\":1866:1868   */\n      0x20\n        /* \"#utility.yul\":1855:1864   */\n      dup3\n        /* \"#utility.yul\":1851:1869   */\n      add\n        /* \"#utility.yul\":1843:1869   */\n      swap1\n      pop\n        /* \"#utility.yul\":1879:1950   */\n      tag_146\n        /* \"#utility.yul\":1947:1948   */\n      0x00\n        /* \"#utility.yul\":1936:1945   */\n      dup4\n        /* \"#utility.yul\":1932:1949   */\n      add\n        /* \"#utility.yul\":1923:1929   */\n      dup5\n        /* \"#utility.yul\":1879:1950   */\n      tag_102\n      jump\t// in\n    tag_146:\n        /* \"#utility.yul\":1735:1957   */\n      swap3\n      swap2\n      pop\n      pop\n      jump\t// out\n        /* \"#utility.yul\":1963:2085   */\n    tag_103:\n        /* \"#utility.yul\":2036:2060   */\n      tag_148\n        /* \"#utility.yul\":2054:2059   */\n      dup2\n        /* \"#utility.yul\":2036:2060   */\n      tag_100\n      jump\t// in\n    tag_148:\n        /* \"#utility.yul\":2029:2034   */\n      dup2\n        /* \"#utility.yul\":2026:2061   */\n      eq\n        /* \"#utility.yul\":2016:2079   */\n      tag_149\n      jumpi\n        /* \"#utility.yul\":2075:2076   */\n      0x00\n        /* \"#utility.yul\":2072:2073   */\n      dup1\n        /* \"#utility.yul\":2065:2077   */\n      revert\n        /* \"#utility.yul\":2016:2079   */\n    tag_149:\n        /* \"#utility.yul\":1963:2085   */\n      pop\n      jump\t// out\n        /* \"#utility.yul\":2091:2230   */\n    tag_104:\n        /* \"#utility.yul\":2137:2142   */\n      0x00\n        /* \"#utility.yul\":2175:2181   */\n      dup2\n        /* \"#utility.yul\":2162:2182   */\n      calldataload\n        /* \"#utility.yul\":2153:2182   */\n      swap1\n      pop\n        /* \"#utility.yul\":2191:2224   */\n      tag_151\n        /* \"#utility.yul\":2218:2223   */\n      dup2\n        /* \"#utility.yul\":2191:2224   */\n      tag_103\n      jump\t// in\n    tag_151:\n        /* \"#utility.yul\":2091:2230   */\n      swap3\n      swap2\n      pop\n      pop\n      jump\t// out\n        /* \"#utility.yul\":2236:2565   */\n    tag_34:\n        /* \"#utility.yul\":2295:2301   */\n      0x00\n        /* \"#utility.yul\":2344:2346   */\n      0x20\n        /* \"#utility.yul\":2332:2341   */\n      dup3\n        /* \"#utility.yul\":2323:2330   */\n      dup5\n        /* \"#utility.yul\":2319:2342   */\n      sub\n        /* \"#utility.yul\":2315:2347   */\n      slt\n        /* \"#utility.yul\":2312:2431   */\n      iszero\n      tag_153\n      jumpi\n        /* \"#utility.yul\":2350:2429   */\n      tag_154\n      tag_94\n      jump\t// in\n    tag_154:\n        /* \"#utility.yul\":2312:2431   */\n    tag_153:\n        /* \"#utility.yul\":2470:2471   */\n      0x00\n        /* \"#utility.yul\":2495:2548   */\n      tag_155\n        /* \"#utility.yul\":2540:2547   */\n      dup5\n        /* \"#utility.yul\":2531:2537   */\n      dup3\n        /* \"#utility.yul\":2520:2529   */\n      dup6\n        /* \"#utility.yul\":2516:2538   */\n      add\n        /* \"#utility.yul\":2495:2548   */\n      tag_104\n      jump\t// in\n    tag_155:\n        /* \"#utility.yul\":2485:2548   */\n      swap2\n      pop\n        /* \"#utility.yul\":2441:2558   */\n      pop\n        /* \"#utility.yul\":2236:2565   */\n      swap3\n      swap2\n      pop\n      pop\n      jump\t// out\n        /* \"#utility.yul\":2571:2740   */\n    tag_105:\n        /* \"#utility.yul\":2655:2666   */\n      0x00\n        /* \"#utility.yul\":2689:2695   */\n      dup3\n        /* \"#utility.yul\":2684:2687   */\n      dup3\n        /* \"#utility.yul\":2677:2696   */\n      mstore\n        /* \"#utility.yul\":2729:2733   */\n      0x20\n        /* \"#utility.yul\":2724:2727   */\n      dup3\n        /* \"#utility.yul\":2720:2734   */\n      add\n        /* \"#utility.yul\":2705:2734   */\n      swap1\n      pop\n        /* \"#utility.yul\":2571:2740   */\n      swap3\n      swap2\n      pop\n      pop\n      jump\t// out\n        /* \"#utility.yul\":2746:2926   */\n    tag_106:\n        /* \"#utility.yul\":2886:2918   */\n      0x56616c7565206e6f742067726561746572207468616e20312065746865720000\n        /* \"#utility.yul\":2882:2883   */\n      0x00\n        /* \"#utility.yul\":2874:2880   */\n      dup3\n        /* \"#utility.yul\":2870:2884   */\n      add\n        /* \"#utility.yul\":2863:2919   */\n      mstore\n        /* \"#utility.yul\":2746:2926   */\n      pop\n      jump\t// out\n        /* \"#utility.yul\":2932:3298   */\n    tag_107:\n        /* \"#utility.yul\":3074:3077   */\n      0x00\n        /* \"#utility.yul\":3095:3162   */\n      tag_159\n        /* \"#utility.yul\":3159:3161   */\n      0x1e\n        /* \"#utility.yul\":3154:3157   */\n      dup4\n        /* \"#utility.yul\":3095:3162   */\n      tag_105\n      jump\t// in\n    tag_159:\n        /* \"#utility.yul\":3088:3162   */\n      swap2\n      pop\n        /* \"#utility.yul\":3171:3264   */\n      tag_160\n        /* \"#utility.yul\":3260:3263   */\n      dup3\n        /* \"#utility.yul\":3171:3264   */\n      tag_106\n      jump\t// in\n    tag_160:\n        /* \"#utility.yul\":3289:3291   */\n      0x20\n        /* \"#utility.yul\":3284:3287   */\n      dup3\n        /* \"#utility.yul\":3280:3292   */\n      add\n        /* \"#utility.yul\":3273:3292   */\n      swap1\n      pop\n        /* \"#utility.yul\":2932:3298   */\n      swap2\n      swap1\n      pop\n      jump\t// out\n        /* \"#utility.yul\":3304:3723   */\n    tag_42:\n        /* \"#utility.yul\":3470:3474   */\n      0x00\n        /* \"#utility.yul\":3508:3510   */\n      0x20\n        /* \"#utility.yul\":3497:3506   */\n      dup3\n        /* \"#utility.yul\":3493:3511   */\n      add\n        /* \"#utility.yul\":3485:3511   */\n      swap1\n      pop\n        /* \"#utility.yul\":3557:3566   */\n      dup2\n        /* \"#utility.yul\":3551:3555   */\n      dup2\n        /* \"#utility.yul\":3547:3567   */\n      sub\n        /* \"#utility.yul\":3543:3544   */\n      0x00\n        /* \"#utility.yul\":3532:3541   */\n      dup4\n        /* \"#utility.yul\":3528:3545   */\n      add\n        /* \"#utility.yul\":3521:3568   */\n      mstore\n        /* \"#utility.yul\":3585:3716   */\n      tag_162\n        /* \"#utility.yul\":3711:3715   */\n      dup2\n        /* \"#utility.yul\":3585:3716   */\n      tag_107\n      jump\t// in\n    tag_162:\n        /* \"#utility.yul\":3577:3716   */\n      swap1\n      pop\n        /* \"#utility.yul\":3304:3723   */\n      swap2\n      swap1\n      pop\n      jump\t// out\n        /* \"#utility.yul\":3729:3909   */\n    tag_108:\n        /* \"#utility.yul\":3777:3854   */\n      0x4e487b7100000000000000000000000000000000000000000000000000000000\n        /* \"#utility.yul\":3774:3775   */\n      0x00\n        /* \"#utility.yul\":3767:3855   */\n      mstore\n        /* \"#utility.yul\":3874:3878   */\n      0x11\n        /* \"#utility.yul\":3871:3872   */\n      0x04\n        /* \"#utility.yul\":3864:3879   */\n      mstore\n        /* \"#utility.yul\":3898:3902   */\n      0x24\n        /* \"#utility.yul\":3895:3896   */\n      0x00\n        /* \"#utility.yul\":3888:3903   */\n      revert\n        /* \"#utility.yul\":3915:4106   */\n    tag_45:\n        /* \"#utility.yul\":3955:3958   */\n      0x00\n        /* \"#utility.yul\":3974:3994   */\n      tag_165\n        /* \"#utility.yul\":3992:3993   */\n      dup3\n        /* \"#utility.yul\":3974:3994   */\n      tag_100\n      jump\t// in\n    tag_165:\n        /* \"#utility.yul\":3969:3994   */\n      swap2\n      pop\n        /* \"#utility.yul\":4008:4028   */\n      tag_166\n        /* \"#utility.yul\":4026:4027   */\n      dup4\n        /* \"#utility.yul\":4008:4028   */\n      tag_100\n      jump\t// in\n    tag_166:\n        /* \"#utility.yul\":4003:4028   */\n      swap3\n      pop\n        /* \"#utility.yul\":4051:4052   */\n      dup3\n        /* \"#utility.yul\":4048:4049   */\n      dup3\n        /* \"#utility.yul\":4044:4053   */\n      add\n        /* \"#utility.yul\":4037:4053   */\n      swap1\n      pop\n        /* \"#utility.yul\":4072:4075   */\n      dup1\n        /* \"#utility.yul\":4069:4070   */\n      dup3\n        /* \"#utility.yul\":4066:4076   */\n      gt\n        /* \"#utility.yul\":4063:4099   */\n      iszero\n      tag_167\n      jumpi\n        /* \"#utility.yul\":4079:4097   */\n      tag_168\n      tag_108\n      jump\t// in\n    tag_168:\n        /* \"#utility.yul\":4063:4099   */\n    tag_167:\n        /* \"#utility.yul\":3915:4106   */\n      swap3\n      swap2\n      pop\n      pop\n      jump\t// out\n        /* \"#utility.yul\":4112:4292   */\n    tag_54:\n        /* \"#utility.yul\":4160:4237   */\n      0x4e487b7100000000000000000000000000000000000000000000000000000000\n        /* \"#utility.yul\":4157:4158   */\n      0x00\n        /* \"#utility.yul\":4150:4238   */\n      mstore\n        /* \"#utility.yul\":4257:4261   */\n      0x32\n        /* \"#utility.yul\":4254:4255   */\n      0x04\n        /* \"#utility.yul\":4247:4262   */\n      mstore\n        /* \"#utility.yul\":4281:4285   */\n      0x24\n        /* \"#utility.yul\":4278:4279   */\n      0x00\n        /* \"#utility.yul\":4271:4286   */\n      revert\n        /* \"#utility.yul\":4298:4478   */\n    tag_58:\n        /* \"#utility.yul\":4346:4423   */\n      0x4e487b7100000000000000000000000000000000000000000000000000000000\n        /* \"#utility.yul\":4343:4344   */\n      0x00\n        /* \"#utility.yul\":4336:4424   */\n      mstore\n        /* \"#utility.yul\":4443:4447   */\n      0x41\n        /* \"#utility.yul\":4440:4441   */\n      0x04\n        /* \"#utility.yul\":4433:4448   */\n      mstore\n        /* \"#utility.yul\":4467:4471   */\n      0x24\n        /* \"#utility.yul\":4464:4465   */\n      0x00\n        /* \"#utility.yul\":4457:4472   */\n      revert\n        /* \"#utility.yul\":4484:4631   */\n    tag_109:\n        /* \"#utility.yul\":4585:4596   */\n      0x00\n        /* \"#utility.yul\":4622:4625   */\n      dup2\n        /* \"#utility.yul\":4607:4625   */\n      swap1\n      pop\n        /* \"#utility.yul\":4484:4631   */\n      swap3\n      swap2\n      pop\n      pop\n      jump\t// out\n        /* \"#utility.yul\":4637:4751   */\n    tag_110:\n      pop\n      jump\t// out\n        /* \"#utility.yul\":4757:5155   */\n    tag_111:\n        /* \"#utility.yul\":4916:4919   */\n      0x00\n        /* \"#utility.yul\":4937:5020   */\n      tag_174\n        /* \"#utility.yul\":5018:5019   */\n      0x00\n        /* \"#utility.yul\":5013:5016   */\n      dup4\n        /* \"#utility.yul\":4937:5020   */\n      tag_109\n      jump\t// in\n    tag_174:\n        /* \"#utility.yul\":4930:5020   */\n      swap2\n      pop\n        /* \"#utility.yul\":5029:5122   */\n      tag_175\n        /* \"#utility.yul\":5118:5121   */\n      dup3\n        /* \"#utility.yul\":5029:5122   */\n      tag_110\n      jump\t// in\n    tag_175:\n        /* \"#utility.yul\":5147:5148   */\n      0x00\n        /* \"#utility.yul\":5142:5145   */\n      dup3\n        /* \"#utility.yul\":5138:5149   */\n      add\n        /* \"#utility.yul\":5131:5149   */\n      swap1\n      pop\n        /* \"#utility.yul\":4757:5155   */\n      swap2\n      swap1\n      pop\n      jump\t// out\n        /* \"#utility.yul\":5161:5540   */\n    tag_63:\n        /* \"#utility.yul\":5345:5348   */\n      0x00\n        /* \"#utility.yul\":5367:5514   */\n      tag_177\n        /* \"#utility.yul\":5510:5513   */\n      dup3\n        /* \"#utility.yul\":5367:5514   */\n      tag_111\n      jump\t// in\n    tag_177:\n        /* \"#utility.yul\":5360:5514   */\n      swap2\n      pop\n        /* \"#utility.yul\":5531:5534   */\n      dup2\n        /* \"#utility.yul\":5524:5534   */\n      swap1\n      pop\n        /* \"#utility.yul\":5161:5540   */\n      swap2\n      swap1\n      pop\n      jump\t// out\n        /* \"#utility.yul\":5546:5707   */\n    tag_112:\n        /* \"#utility.yul\":5686:5699   */\n      0x43616c6c204661696c6564000000000000000000000000000000000000000000\n        /* \"#utility.yul\":5682:5683   */\n      0x00\n        /* \"#utility.yul\":5674:5680   */\n      dup3\n        /* \"#utility.yul\":5670:5684   */\n      add\n        /* \"#utility.yul\":5663:5700   */\n      mstore\n        /* \"#utility.yul\":5546:5707   */\n      pop\n      jump\t// out\n        /* \"#utility.yul\":5713:6079   */\n    tag_113:\n        /* \"#utility.yul\":5855:5858   */\n      0x00\n        /* \"#utility.yul\":5876:5943   */\n      tag_180\n        /* \"#utility.yul\":5940:5942   */\n      0x0b\n        /* \"#utility.yul\":5935:5938   */\n      dup4\n        /* \"#utility.yul\":5876:5943   */\n      tag_105\n      jump\t// in\n    tag_180:\n        /* \"#utility.yul\":5869:5943   */\n      swap2\n      pop\n        /* \"#utility.yul\":5952:6045   */\n      tag_181\n        /* \"#utility.yul\":6041:6044   */\n      dup3\n        /* \"#utility.yul\":5952:6045   */\n      tag_112\n      jump\t// in\n    tag_181:\n        /* \"#utility.yul\":6070:6072   */\n      0x20\n        /* \"#utility.yul\":6065:6068   */\n      dup3\n        /* \"#utility.yul\":6061:6073   */\n      add\n        /* \"#utility.yul\":6054:6073   */\n      swap1\n      pop\n        /* \"#utility.yul\":5713:6079   */\n      swap2\n      swap1\n      pop\n      jump\t// out\n        /* \"#utility.yul\":6085:6504   */\n    tag_69:\n        /* \"#utility.yul\":6251:6255   */\n      0x00\n        /* \"#utility.yul\":6289:6291   */\n      0x20\n        /* \"#utility.yul\":6278:6287   */\n      dup3\n        /* \"#utility.yul\":6274:6292   */\n      add\n        /* \"#utility.yul\":6266:6292   */\n      swap1\n      pop\n        /* \"#utility.yul\":6338:6347   */\n      dup2\n        /* \"#utility.yul\":6332:6336   */\n      dup2\n        /* \"#utility.yul\":6328:6348   */\n      sub\n        /* \"#utility.yul\":6324:6325   */\n      0x00\n        /* \"#utility.yul\":6313:6322   */\n      dup4\n        /* \"#utility.yul\":6309:6326   */\n      add\n        /* \"#utility.yul\":6302:6349   */\n      mstore\n        /* \"#utility.yul\":6366:6497   */\n      tag_183\n        /* \"#utility.yul\":6492:6496   */\n      dup2\n        /* \"#utility.yul\":6366:6497   */\n      tag_113\n      jump\t// in\n    tag_183:\n        /* \"#utility.yul\":6358:6497   */\n      swap1\n      pop\n        /* \"#utility.yul\":6085:6504   */\n      swap2\n      swap1\n      pop\n      jump\t// out\n        /* \"#utility.yul\":6510:6920   */\n    tag_76:\n        /* \"#utility.yul\":6550:6557   */\n      0x00\n        /* \"#utility.yul\":6573:6593   */\n      tag_185\n        /* \"#utility.yul\":6591:6592   */\n      dup3\n        /* \"#utility.yul\":6573:6593   */\n      tag_100\n      jump\t// in\n    tag_185:\n        /* \"#utility.yul\":6568:6593   */\n      swap2\n      pop\n        /* \"#utility.yul\":6607:6627   */\n      tag_186\n        /* \"#utility.yul\":6625:6626   */\n      dup4\n        /* \"#utility.yul\":6607:6627   */\n      tag_100\n      jump\t// in\n    tag_186:\n        /* \"#utility.yul\":6602:6627   */\n      swap3\n      pop\n        /* \"#utility.yul\":6662:6663   */\n      dup3\n        /* \"#utility.yul\":6659:6660   */\n      dup3\n        /* \"#utility.yul\":6655:6664   */\n      mul\n        /* \"#utility.yul\":6684:6714   */\n      tag_187\n        /* \"#utility.yul\":6702:6713   */\n      dup2\n        /* \"#utility.yul\":6684:6714   */\n      tag_100\n      jump\t// in\n    tag_187:\n        /* \"#utility.yul\":6673:6714   */\n      swap2\n      pop\n        /* \"#utility.yul\":6863:6864   */\n      dup3\n        /* \"#utility.yul\":6854:6861   */\n      dup3\n        /* \"#utility.yul\":6850:6865   */\n      div\n        /* \"#utility.yul\":6847:6848   */\n      dup5\n        /* \"#utility.yul\":6844:6866   */\n      eq\n        /* \"#utility.yul\":6824:6825   */\n      dup4\n        /* \"#utility.yul\":6817:6826   */\n      iszero\n        /* \"#utility.yul\":6797:6880   */\n      or\n        /* \"#utility.yul\":6774:6913   */\n      tag_188\n      jumpi\n        /* \"#utility.yul\":6893:6911   */\n      tag_189\n      tag_108\n      jump\t// in\n    tag_189:\n        /* \"#utility.yul\":6774:6913   */\n    tag_188:\n        /* \"#utility.yul\":6558:6920   */\n      pop\n        /* \"#utility.yul\":6510:6920   */\n      swap3\n      swap2\n      pop\n      pop\n      jump\t// out\n        /* \"#utility.yul\":6926:7106   */\n    tag_114:\n        /* \"#utility.yul\":6974:7051   */\n      0x4e487b7100000000000000000000000000000000000000000000000000000000\n        /* \"#utility.yul\":6971:6972   */\n      0x00\n        /* \"#utility.yul\":6964:7052   */\n      mstore\n        /* \"#utility.yul\":7071:7075   */\n      0x12\n        /* \"#utility.yul\":7068:7069   */\n      0x04\n        /* \"#utility.yul\":7061:7076   */\n      mstore\n        /* \"#utility.yul\":7095:7099   */\n      0x24\n        /* \"#utility.yul\":7092:7093   */\n      0x00\n        /* \"#utility.yul\":7085:7100   */\n      revert\n        /* \"#utility.yul\":7112:7297   */\n    tag_78:\n        /* \"#utility.yul\":7152:7153   */\n      0x00\n        /* \"#utility.yul\":7169:7189   */\n      tag_192\n        /* \"#utility.yul\":7187:7188   */\n      dup3\n        /* \"#utility.yul\":7169:7189   */\n      tag_100\n      jump\t// in\n    tag_192:\n        /* \"#utility.yul\":7164:7189   */\n      swap2\n      pop\n        /* \"#utility.yul\":7203:7223   */\n      tag_193\n        /* \"#utility.yul\":7221:7222   */\n      dup4\n        /* \"#utility.yul\":7203:7223   */\n      tag_100\n      jump\t// in\n    tag_193:\n        /* \"#utility.yul\":7198:7223   */\n      swap3\n      pop\n        /* \"#utility.yul\":7242:7243   */\n      dup3\n        /* \"#utility.yul\":7232:7267   */\n      tag_194\n      jumpi\n        /* \"#utility.yul\":7247:7265   */\n      tag_195\n      tag_114\n      jump\t// in\n    tag_195:\n        /* \"#utility.yul\":7232:7267   */\n    tag_194:\n        /* \"#utility.yul\":7289:7290   */\n      dup3\n        /* \"#utility.yul\":7286:7287   */\n      dup3\n        /* \"#utility.yul\":7282:7291   */\n      div\n        /* \"#utility.yul\":7277:7291   */\n      swap1\n      pop\n        /* \"#utility.yul\":7112:7297   */\n      swap3\n      swap2\n      pop\n      pop\n      jump\t// out\n        /* \"#utility.yul\":7303:7408   */\n    tag_115:\n        /* \"#utility.yul\":7339:7346   */\n      0x00\n        /* \"#utility.yul\":7379:7401   */\n      0xffffffffffffffffffff\n        /* \"#utility.yul\":7372:7377   */\n      dup3\n        /* \"#utility.yul\":7368:7402   */\n      and\n        /* \"#utility.yul\":7357:7402   */\n      swap1\n      pop\n        /* \"#utility.yul\":7303:7408   */\n      swap2\n      swap1\n      pop\n      jump\t// out\n        /* \"#utility.yul\":7414:7534   */\n    tag_116:\n        /* \"#utility.yul\":7486:7509   */\n      tag_198\n        /* \"#utility.yul\":7503:7508   */\n      dup2\n        /* \"#utility.yul\":7486:7509   */\n      tag_115\n      jump\t// in\n    tag_198:\n        /* \"#utility.yul\":7479:7484   */\n      dup2\n        /* \"#utility.yul\":7476:7510   */\n      eq\n        /* \"#utility.yul\":7466:7528   */\n      tag_199\n      jumpi\n        /* \"#utility.yul\":7524:7525   */\n      0x00\n        /* \"#utility.yul\":7521:7522   */\n      dup1\n        /* \"#utility.yul\":7514:7526   */\n      revert\n        /* \"#utility.yul\":7466:7528   */\n    tag_199:\n        /* \"#utility.yul\":7414:7534   */\n      pop\n      jump\t// out\n        /* \"#utility.yul\":7540:7681   */\n    tag_117:\n        /* \"#utility.yul\":7596:7601   */\n      0x00\n        /* \"#utility.yul\":7627:7633   */\n      dup2\n        /* \"#utility.yul\":7621:7634   */\n      mload\n        /* \"#utility.yul\":7612:7634   */\n      swap1\n      pop\n        /* \"#utility.yul\":7643:7675   */\n      tag_201\n        /* \"#utility.yul\":7669:7674   */\n      dup2\n        /* \"#utility.yul\":7643:7675   */\n      tag_116\n      jump\t// in\n    tag_201:\n        /* \"#utility.yul\":7540:7681   */\n      swap3\n      swap2\n      pop\n      pop\n      jump\t// out\n        /* \"#utility.yul\":7687:7763   */\n    tag_118:\n        /* \"#utility.yul\":7723:7730   */\n      0x00\n        /* \"#utility.yul\":7752:7757   */\n      dup2\n        /* \"#utility.yul\":7741:7757   */\n      swap1\n      pop\n        /* \"#utility.yul\":7687:7763   */\n      swap2\n      swap1\n      pop\n      jump\t// out\n        /* \"#utility.yul\":7769:7889   */\n    tag_119:\n        /* \"#utility.yul\":7841:7864   */\n      tag_204\n        /* \"#utility.yul\":7858:7863   */\n      dup2\n        /* \"#utility.yul\":7841:7864   */\n      tag_118\n      jump\t// in\n    tag_204:\n        /* \"#utility.yul\":7834:7839   */\n      dup2\n        /* \"#utility.yul\":7831:7865   */\n      eq\n        /* \"#utility.yul\":7821:7883   */\n      tag_205\n      jumpi\n        /* \"#utility.yul\":7879:7880   */\n      0x00\n        /* \"#utility.yul\":7876:7877   */\n      dup1\n        /* \"#utility.yul\":7869:7881   */\n      revert\n        /* \"#utility.yul\":7821:7883   */\n    tag_205:\n        /* \"#utility.yul\":7769:7889   */\n      pop\n      jump\t// out\n        /* \"#utility.yul\":7895:8036   */\n    tag_120:\n        /* \"#utility.yul\":7951:7956   */\n      0x00\n        /* \"#utility.yul\":7982:7988   */\n      dup2\n        /* \"#utility.yul\":7976:7989   */\n      mload\n        /* \"#utility.yul\":7967:7989   */\n      swap1\n      pop\n        /* \"#utility.yul\":7998:8030   */\n      tag_207\n        /* \"#utility.yul\":8024:8029   */\n      dup2\n        /* \"#utility.yul\":7998:8030   */\n      tag_119\n      jump\t// in\n    tag_207:\n        /* \"#utility.yul\":7895:8036   */\n      swap3\n      swap2\n      pop\n      pop\n      jump\t// out\n        /* \"#utility.yul\":8042:8185   */\n    tag_121:\n        /* \"#utility.yul\":8099:8104   */\n      0x00\n        /* \"#utility.yul\":8130:8136   */\n      dup2\n        /* \"#utility.yul\":8124:8137   */\n      mload\n        /* \"#utility.yul\":8115:8137   */\n      swap1\n      pop\n        /* \"#utility.yul\":8146:8179   */\n      tag_209\n        /* \"#utility.yul\":8173:8178   */\n      dup2\n        /* \"#utility.yul\":8146:8179   */\n      tag_103\n      jump\t// in\n    tag_209:\n        /* \"#utility.yul\":8042:8185   */\n      swap3\n      swap2\n      pop\n      pop\n      jump\t// out\n        /* \"#utility.yul\":8191:9162   */\n    tag_83:\n        /* \"#utility.yul\":8294:8300   */\n      0x00\n        /* \"#utility.yul\":8302:8308   */\n      dup1\n        /* \"#utility.yul\":8310:8316   */\n      0x00\n        /* \"#utility.yul\":8318:8324   */\n      dup1\n        /* \"#utility.yul\":8326:8332   */\n      0x00\n        /* \"#utility.yul\":8375:8378   */\n      0xa0\n        /* \"#utility.yul\":8363:8372   */\n      dup7\n        /* \"#utility.yul\":8354:8361   */\n      dup9\n        /* \"#utility.yul\":8350:8373   */\n      sub\n        /* \"#utility.yul\":8346:8379   */\n      slt\n        /* \"#utility.yul\":8343:8463   */\n      iszero\n      tag_211\n      jumpi\n        /* \"#utility.yul\":8382:8461   */\n      tag_212\n      tag_94\n      jump\t// in\n    tag_212:\n        /* \"#utility.yul\":8343:8463   */\n    tag_211:\n        /* \"#utility.yul\":8502:8503   */\n      0x00\n        /* \"#utility.yul\":8527:8590   */\n      tag_213\n        /* \"#utility.yul\":8582:8589   */\n      dup9\n        /* \"#utility.yul\":8573:8579   */\n      dup3\n        /* \"#utility.yul\":8562:8571   */\n      dup10\n        /* \"#utility.yul\":8558:8580   */\n      add\n        /* \"#utility.yul\":8527:8590   */\n      tag_117\n      jump\t// in\n    tag_213:\n        /* \"#utility.yul\":8517:8590   */\n      swap6\n      pop\n        /* \"#utility.yul\":8473:8600   */\n      pop\n        /* \"#utility.yul\":8639:8641   */\n      0x20\n        /* \"#utility.yul\":8665:8728   */\n      tag_214\n        /* \"#utility.yul\":8720:8727   */\n      dup9\n        /* \"#utility.yul\":8711:8717   */\n      dup3\n        /* \"#utility.yul\":8700:8709   */\n      dup10\n        /* \"#utility.yul\":8696:8718   */\n      add\n        /* \"#utility.yul\":8665:8728   */\n      tag_120\n      jump\t// in\n    tag_214:\n        /* \"#utility.yul\":8655:8728   */\n      swap5\n      pop\n        /* \"#utility.yul\":8610:8738   */\n      pop\n        /* \"#utility.yul\":8777:8779   */\n      0x40\n        /* \"#utility.yul\":8803:8867   */\n      tag_215\n        /* \"#utility.yul\":8859:8866   */\n      dup9\n        /* \"#utility.yul\":8850:8856   */\n      dup3\n        /* \"#utility.yul\":8839:8848   */\n      dup10\n        /* \"#utility.yul\":8835:8857   */\n      add\n        /* \"#utility.yul\":8803:8867   */\n      tag_121\n      jump\t// in\n    tag_215:\n        /* \"#utility.yul\":8793:8867   */\n      swap4\n      pop\n        /* \"#utility.yul\":8748:8877   */\n      pop\n        /* \"#utility.yul\":8916:8918   */\n      0x60\n        /* \"#utility.yul\":8942:9006   */\n      tag_216\n        /* \"#utility.yul\":8998:9005   */\n      dup9\n        /* \"#utility.yul\":8989:8995   */\n      dup3\n        /* \"#utility.yul\":8978:8987   */\n      dup10\n        /* \"#utility.yul\":8974:8996   */\n      add\n        /* \"#utility.yul\":8942:9006   */\n      tag_121\n      jump\t// in\n    tag_216:\n        /* \"#utility.yul\":8932:9006   */\n      swap3\n      pop\n        /* \"#utility.yul\":8887:9016   */\n      pop\n        /* \"#utility.yul\":9055:9058   */\n      0x80\n        /* \"#utility.yul\":9082:9145   */\n      tag_217\n        /* \"#utility.yul\":9137:9144   */\n      dup9\n        /* \"#utility.yul\":9128:9134   */\n      dup3\n        /* \"#utility.yul\":9117:9126   */\n      dup10\n        /* \"#utility.yul\":9113:9135   */\n      add\n        /* \"#utility.yul\":9082:9145   */\n      tag_117\n      jump\t// in\n    tag_217:\n        /* \"#utility.yul\":9072:9145   */\n      swap2\n      pop\n        /* \"#utility.yul\":9026:9155   */\n      pop\n        /* \"#utility.yul\":8191:9162   */\n      swap3\n      swap6\n      pop\n      swap3\n      swap6\n      swap1\n      swap4\n      pop\n      jump\t// out\n        /* \"#utility.yul\":9168:9724   */\n    tag_85:\n        /* \"#utility.yul\":9207:9214   */\n      0x00\n        /* \"#utility.yul\":9230:9249   */\n      tag_219\n        /* \"#utility.yul\":9247:9248   */\n      dup3\n        /* \"#utility.yul\":9230:9249   */\n      tag_118\n      jump\t// in\n    tag_219:\n        /* \"#utility.yul\":9225:9249   */\n      swap2\n      pop\n        /* \"#utility.yul\":9263:9282   */\n      tag_220\n        /* \"#utility.yul\":9280:9281   */\n      dup4\n        /* \"#utility.yul\":9263:9282   */\n      tag_118\n      jump\t// in\n    tag_220:\n        /* \"#utility.yul\":9258:9282   */\n      swap3\n      pop\n        /* \"#utility.yul\":9317:9318   */\n      dup3\n        /* \"#utility.yul\":9314:9315   */\n      dup3\n        /* \"#utility.yul\":9310:9319   */\n      mul\n        /* \"#utility.yul\":9339:9368   */\n      tag_221\n        /* \"#utility.yul\":9356:9367   */\n      dup2\n        /* \"#utility.yul\":9339:9368   */\n      tag_118\n      jump\t// in\n    tag_221:\n        /* \"#utility.yul\":9328:9368   */\n      swap2\n      pop\n        /* \"#utility.yul\":9426:9492   */\n      0x8000000000000000000000000000000000000000000000000000000000000000\n        /* \"#utility.yul\":9423:9424   */\n      dup5\n        /* \"#utility.yul\":9420:9493   */\n      eq\n        /* \"#utility.yul\":9416:9417   */\n      0x00\n        /* \"#utility.yul\":9413:9414   */\n      dup5\n        /* \"#utility.yul\":9409:9418   */\n      slt\n        /* \"#utility.yul\":9405:9494   */\n      and\n        /* \"#utility.yul\":9402:9517   */\n      iszero\n      tag_222\n      jumpi\n        /* \"#utility.yul\":9497:9515   */\n      tag_223\n      tag_108\n      jump\t// in\n    tag_223:\n        /* \"#utility.yul\":9402:9517   */\n    tag_222:\n        /* \"#utility.yul\":9667:9668   */\n      dup3\n        /* \"#utility.yul\":9658:9665   */\n      dup3\n        /* \"#utility.yul\":9653:9669   */\n      sdiv\n        /* \"#utility.yul\":9650:9651   */\n      dup5\n        /* \"#utility.yul\":9647:9670   */\n      eq\n        /* \"#utility.yul\":9627:9628   */\n      dup4\n        /* \"#utility.yul\":9620:9629   */\n      iszero\n        /* \"#utility.yul\":9600:9684   */\n      or\n        /* \"#utility.yul\":9577:9717   */\n      tag_224\n      jumpi\n        /* \"#utility.yul\":9697:9715   */\n      tag_225\n      tag_108\n      jump\t// in\n    tag_225:\n        /* \"#utility.yul\":9577:9717   */\n    tag_224:\n        /* \"#utility.yul\":9215:9724   */\n      pop\n        /* \"#utility.yul\":9168:9724   */\n      swap3\n      swap2\n      pop\n      pop\n      jump\t// out\n\n    auxdata: 0xa2646970667358221220e6e7f774b344121c12fe55c3a8174f4b36cb132eb65c8f0b51c7f305d8aeaf7764736f6c634300081a0033\n}\n",
				"bytecode": {
					"linkReferences": {},
					"object": "60a0604052348015600e575f80fd5b503373ffffffffffffffffffffffffffffffffffffffff1660808173ffffffffffffffffffffffffffffffffffffffff1681525050608051610ba56100625f395f818161023101526104710152610ba55ff3fe60806040526004361061004d575f3560e01c80633ccfd60b146100665780633e47d6f31461007c578063b60d4288146100b8578063c698d625146100c2578063dc0d3dff146100ec5761005c565b3661005c5761005a610128565b005b610064610128565b005b348015610071575f80fd5b5061007a61022f565b005b348015610087575f80fd5b506100a2600480360381019061009d91906106aa565b61045a565b6040516100af91906106ed565b60405180910390f35b6100c0610128565b005b3480156100cd575f80fd5b506100d661046f565b6040516100e39190610715565b60405180910390f35b3480156100f7575f80fd5b50610112600480360381019061010d9190610758565b610493565b60405161011f9190610715565b60405180910390f35b674563918244f4000061013a346104cd565b101561017b576040517f08c379a0000000000000000000000000000000000000000000000000000000008152600401610172906107dd565b60405180910390fd5b5f33908060018154018082558091505060019003905f5260205f20015f9091909190916101000a81548173ffffffffffffffffffffffffffffffffffffffff021916908373ffffffffffffffffffffffffffffffffffffffff1602179055503460015f3373ffffffffffffffffffffffffffffffffffffffff1673ffffffffffffffffffffffffffffffffffffffff1681526020019081526020015f205f8282546102269190610828565b92505081905550565b7f000000000000000000000000000000000000000000000000000000000000000073ffffffffffffffffffffffffffffffffffffffff163373ffffffffffffffffffffffffffffffffffffffff16146102b4576040517f30cd747100000000000000000000000000000000000000000000000000000000815260040160405180910390fd5b5f5b5f80549050811015610350575f8082815481106102d6576102d561085b565b5b905f5260205f20015f9054906101000a900473ffffffffffffffffffffffffffffffffffffffff1690505f60015f8373ffffffffffffffffffffffffffffffffffffffff1673ffffffffffffffffffffffffffffffffffffffff1681526020019081526020015f20819055505080806001019150506102b6565b505f67ffffffffffffffff81111561036b5761036a610888565b5b6040519080825280602002602001820160405280156103995781602001602082028036833780820191505090505b505f90805190602001906103ae9291906105aa565b505f3373ffffffffffffffffffffffffffffffffffffffff16476040516103d4906108e2565b5f6040518083038185875af1925050503d805f811461040e576040519150601f19603f3d011682016040523d82523d5f602084013e610413565b606091505b5050905080610457576040517f08c379a000000000000000000000000000000000000000000000000000000000815260040161044e90610940565b60405180910390fd5b50565b6001602052805f5260405f205f915090505481565b7f000000000000000000000000000000000000000000000000000000000000000081565b5f81815481106104a1575f80fd5b905f5260205f20015f915054906101000a900473ffffffffffffffffffffffffffffffffffffffff1681565b5f806104d7610505565b90505f670de0b6b3a764000084836104ef919061095e565b6104f991906109cc565b90508092505050919050565b5f8073feeff7c3fb57d18c5c6cdd71e45d2d0b4f9377bf90505f8173ffffffffffffffffffffffffffffffffffffffff1663feaf968c6040518163ffffffff1660e01b815260040160a060405180830381865afa158015610568573d5f803e3d5ffd5b505050506040513d601f19601f8201168201806040525081019061058c9190610a82565b5050509150506402540be400816105a39190610af9565b9250505090565b828054828255905f5260205f20908101928215610620579160200282015b8281111561061f578251825f6101000a81548173ffffffffffffffffffffffffffffffffffffffff021916908373ffffffffffffffffffffffffffffffffffffffff160217905550916020019190600101906105c8565b5b50905061062d9190610631565b5090565b5b80821115610648575f815f905550600101610632565b5090565b5f80fd5b5f73ffffffffffffffffffffffffffffffffffffffff82169050919050565b5f61067982610650565b9050919050565b6106898161066f565b8114610693575f80fd5b50565b5f813590506106a481610680565b92915050565b5f602082840312156106bf576106be61064c565b5b5f6106cc84828501610696565b91505092915050565b5f819050919050565b6106e7816106d5565b82525050565b5f6020820190506107005f8301846106de565b92915050565b61070f8161066f565b82525050565b5f6020820190506107285f830184610706565b92915050565b610737816106d5565b8114610741575f80fd5b50565b5f813590506107528161072e565b92915050565b5f6020828403121561076d5761076c61064c565b5b5f61077a84828501610744565b91505092915050565b5f82825260208201905092915050565b7f56616c7565206e6f742067726561746572207468616e203120657468657200005f82015250565b5f6107c7601e83610783565b91506107d282610793565b602082019050919050565b5f6020820190508181035f8301526107f4816107bb565b9050919050565b7f4e487b71000000000000000000000000000000000000000000000000000000005f52601160045260245ffd5b5f610832826106d5565b915061083d836106d5565b9250828201905080821115610855576108546107fb565b5b92915050565b7f4e487b71000000000000000000000000000000000000000000000000000000005f52603260045260245ffd5b7f4e487b71000000000000000000000000000000000000000000000000000000005f52604160045260245ffd5b5f81905092915050565b50565b5f6108cd5f836108b5565b91506108d8826108bf565b5f82019050919050565b5f6108ec826108c2565b9150819050919050565b7f43616c6c204661696c65640000000000000000000000000000000000000000005f82015250565b5f61092a600b83610783565b9150610935826108f6565b602082019050919050565b5f6020820190508181035f8301526109578161091e565b9050919050565b5f610968826106d5565b9150610973836106d5565b9250828202610981816106d5565b91508282048414831517610998576109976107fb565b5b5092915050565b7f4e487b71000000000000000000000000000000000000000000000000000000005f52601260045260245ffd5b5f6109d6826106d5565b91506109e1836106d5565b9250826109f1576109f061099f565b5b828204905092915050565b5f69ffffffffffffffffffff82169050919050565b610a1a816109fc565b8114610a24575f80fd5b50565b5f81519050610a3581610a11565b92915050565b5f819050919050565b610a4d81610a3b565b8114610a57575f80fd5b50565b5f81519050610a6881610a44565b92915050565b5f81519050610a7c8161072e565b92915050565b5f805f805f60a08688031215610a9b57610a9a61064c565b5b5f610aa888828901610a27565b9550506020610ab988828901610a5a565b9450506040610aca88828901610a6e565b9350506060610adb88828901610a6e565b9250506080610aec88828901610a27565b9150509295509295909350565b5f610b0382610a3b565b9150610b0e83610a3b565b9250828202610b1c81610a3b565b91507f800000000000000000000000000000000000000000000000000000000000000084145f84121615610b5357610b526107fb565b5b8282058414831517610b6857610b676107fb565b5b509291505056fea2646970667358221220e6e7f774b344121c12fe55c3a8174f4b36cb132eb65c8f0b51c7f305d8aeaf7764736f6c634300081a0033",
					"opcodes": "PUSH1 0xA0 PUSH1 0x40 MSTORE CALLVALUE DUP1 ISZERO PUSH1 0xE JUMPI PUSH0 DUP1 REVERT JUMPDEST POP CALLER PUSH20 0xFFFFFFFFFFFFFFFFFFFFFFFFFFFFFFFFFFFFFFFF AND PUSH1 0x80 DUP2 PUSH20 0xFFFFFFFFFFFFFFFFFFFFFFFFFFFFFFFFFFFFFFFF AND DUP2 MSTORE POP POP PUSH1 0x80 MLOAD PUSH2 0xBA5 PUSH2 0x62 PUSH0 CODECOPY PUSH0 DUP2 DUP2 PUSH2 0x231 ADD MSTORE PUSH2 0x471 ADD MSTORE PUSH2 0xBA5 PUSH0 RETURN INVALID PUSH1 0x80 PUSH1 0x40 MSTORE PUSH1 0x4 CALLDATASIZE LT PUSH2 0x4D JUMPI PUSH0 CALLDATALOAD PUSH1 0xE0 SHR DUP1 PUSH4 0x3CCFD60B EQ PUSH2 0x66 JUMPI DUP1 PUSH4 0x3E47D6F3 EQ PUSH2 0x7C JUMPI DUP1 PUSH4 0xB60D4288 EQ PUSH2 0xB8 JUMPI DUP1 PUSH4 0xC698D625 EQ PUSH2 0xC2 JUMPI DUP1 PUSH4 0xDC0D3DFF EQ PUSH2 0xEC JUMPI PUSH2 0x5C JUMP JUMPDEST CALLDATASIZE PUSH2 0x5C JUMPI PUSH2 0x5A PUSH2 0x128 JUMP JUMPDEST STOP JUMPDEST PUSH2 0x64 PUSH2 0x128 JUMP JUMPDEST STOP JUMPDEST CALLVALUE DUP1 ISZERO PUSH2 0x71 JUMPI PUSH0 DUP1 REVERT JUMPDEST POP PUSH2 0x7A PUSH2 0x22F JUMP JUMPDEST STOP JUMPDEST CALLVALUE DUP1 ISZERO PUSH2 0x87 JUMPI PUSH0 DUP1 REVERT JUMPDEST POP PUSH2 0xA2 PUSH1 0x4 DUP1 CALLDATASIZE SUB DUP2 ADD SWAP1 PUSH2 0x9D SWAP2 SWAP1 PUSH2 0x6AA JUMP JUMPDEST PUSH2 0x45A JUMP JUMPDEST PUSH1 0x40 MLOAD PUSH2 0xAF SWAP2 SWAP1 PUSH2 0x6ED JUMP JUMPDEST PUSH1 0x40 MLOAD DUP1 SWAP2 SUB SWAP1 RETURN JUMPDEST PUSH2 0xC0 PUSH2 0x128 JUMP JUMPDEST STOP JUMPDEST CALLVALUE DUP1 ISZERO PUSH2 0xCD JUMPI PUSH0 DUP1 REVERT JUMPDEST POP PUSH2 0xD6 PUSH2 0x46F JUMP JUMPDEST PUSH1 0x40 MLOAD PUSH2 0xE3 SWAP2 SWAP1 PUSH2 0x715 JUMP JUMPDEST PUSH1 0x40 MLOAD DUP1 SWAP2 SUB SWAP1 RETURN JUMPDEST CALLVALUE DUP1 ISZERO PUSH2 0xF7 JUMPI PUSH0 DUP1 REVERT JUMPDEST POP PUSH2 0x112 PUSH1 0x4 DUP1 CALLDATASIZE SUB DUP2 ADD SWAP1 PUSH2 0x10D SWAP2 SWAP1 PUSH2 0x758 JUMP JUMPDEST PUSH2 0x493 JUMP JUMPDEST PUSH1 0x40 MLOAD PUSH2 0x11F SWAP2 SWAP1 PUSH2 0x715 JUMP JUMPDEST PUSH1 0x40 MLOAD DUP1 SWAP2 SUB SWAP1 RETURN JUMPDEST PUSH8 0x4563918244F40000 PUSH2 0x13A CALLVALUE PUSH2 0x4CD JUMP JUMPDEST LT ISZERO PUSH2 0x17B JUMPI PUSH1 0x40 MLOAD PUSH32 0x8C379A000000000000000000000000000000000000000000000000000000000 DUP2 MSTORE PUSH1 0x4 ADD PUSH2 0x172 SWAP1 PUSH2 0x7DD JUMP JUMPDEST PUSH1 0x40 MLOAD DUP1 SWAP2 SUB SWAP1 REVERT JUMPDEST PUSH0 CALLER SWAP1 DUP1 PUSH1 0x1 DUP2 SLOAD ADD DUP1 DUP3 SSTORE DUP1 SWAP2 POP POP PUSH1 0x1 SWAP1 SUB SWAP1 PUSH0 MSTORE PUSH1 0x20 PUSH0 KECCAK256 ADD PUSH0 SWAP1 SWAP2 SWAP1 SWAP2 SWAP1 SWAP2 PUSH2 0x100 EXP DUP2 SLOAD DUP2 PUSH20 0xFFFFFFFFFFFFFFFFFFFFFFFFFFFFFFFFFFFFFFFF MUL NOT AND SWAP1 DUP4 PUSH20 0xFFFFFFFFFFFFFFFFFFFFFFFFFFFFFFFFFFFFFFFF AND MUL OR SWAP1 SSTORE POP CALLVALUE PUSH1 0x1 PUSH0 CALLER PUSH20 0xFFFFFFFFFFFFFFFFFFFFFFFFFFFFFFFFFFFFFFFF AND PUSH20 0xFFFFFFFFFFFFFFFFFFFFFFFFFFFFFFFFFFFFFFFF AND DUP2 MSTORE PUSH1 0x20 ADD SWAP1 DUP2 MSTORE PUSH1 0x20 ADD PUSH0 KECCAK256 PUSH0 DUP3 DUP3 SLOAD PUSH2 0x226 SWAP2 SWAP1 PUSH2 0x828 JUMP JUMPDEST SWAP3 POP POP DUP2 SWAP1 SSTORE POP JUMP JUMPDEST PUSH32 0x0 PUSH20 0xFFFFFFFFFFFFFFFFFFFFFFFFFFFFFFFFFFFFFFFF AND CALLER PUSH20 0xFFFFFFFFFFFFFFFFFFFFFFFFFFFFFFFFFFFFFFFF AND EQ PUSH2 0x2B4 JUMPI PUSH1 0x40 MLOAD PUSH32 0x30CD747100000000000000000000000000000000000000000000000000000000 DUP2 MSTORE PUSH1 0x4 ADD PUSH1 0x40 MLOAD DUP1 SWAP2 SUB SWAP1 REVERT JUMPDEST PUSH0 JUMPDEST PUSH0 DUP1 SLOAD SWAP1 POP DUP2 LT ISZERO PUSH2 0x350 JUMPI PUSH0 DUP1 DUP3 DUP2 SLOAD DUP2 LT PUSH2 0x2D6 JUMPI PUSH2 0x2D5 PUSH2 0x85B JUMP JUMPDEST JUMPDEST SWAP1 PUSH0 MSTORE PUSH1 0x20 PUSH0 KECCAK256 ADD PUSH0 SWAP1 SLOAD SWAP1 PUSH2 0x100 EXP SWAP1 DIV PUSH20 0xFFFFFFFFFFFFFFFFFFFFFFFFFFFFFFFFFFFFFFFF AND SWAP1 POP PUSH0 PUSH1 0x1 PUSH0 DUP4 PUSH20 0xFFFFFFFFFFFFFFFFFFFFFFFFFFFFFFFFFFFFFFFF AND PUSH20 0xFFFFFFFFFFFFFFFFFFFFFFFFFFFFFFFFFFFFFFFF AND DUP2 MSTORE PUSH1 0x20 ADD SWAP1 DUP2 MSTORE PUSH1 0x20 ADD PUSH0 KECCAK256 DUP2 SWAP1 SSTORE POP POP DUP1 DUP1 PUSH1 0x1 ADD SWAP2 POP POP PUSH2 0x2B6 JUMP JUMPDEST POP PUSH0 PUSH8 0xFFFFFFFFFFFFFFFF DUP2 GT ISZERO PUSH2 0x36B JUMPI PUSH2 0x36A PUSH2 0x888 JUMP JUMPDEST JUMPDEST PUSH1 0x40 MLOAD SWAP1 DUP1 DUP3 MSTORE DUP1 PUSH1 0x20 MUL PUSH1 0x20 ADD DUP3 ADD PUSH1 0x40 MSTORE DUP1 ISZERO PUSH2 0x399 JUMPI DUP2 PUSH1 0x20 ADD PUSH1 0x20 DUP3 MUL DUP1 CALLDATASIZE DUP4 CALLDATACOPY DUP1 DUP3 ADD SWAP2 POP POP SWAP1 POP JUMPDEST POP PUSH0 SWAP1 DUP1 MLOAD SWAP1 PUSH1 0x20 ADD SWAP1 PUSH2 0x3AE SWAP3 SWAP2 SWAP1 PUSH2 0x5AA JUMP JUMPDEST POP PUSH0 CALLER PUSH20 0xFFFFFFFFFFFFFFFFFFFFFFFFFFFFFFFFFFFFFFFF AND SELFBALANCE PUSH1 0x40 MLOAD PUSH2 0x3D4 SWAP1 PUSH2 0x8E2 JUMP JUMPDEST PUSH0 PUSH1 0x40 MLOAD DUP1 DUP4 SUB DUP2 DUP6 DUP8 GAS CALL SWAP3 POP POP POP RETURNDATASIZE DUP1 PUSH0 DUP2 EQ PUSH2 0x40E JUMPI PUSH1 0x40 MLOAD SWAP2 POP PUSH1 0x1F NOT PUSH1 0x3F RETURNDATASIZE ADD AND DUP3 ADD PUSH1 0x40 MSTORE RETURNDATASIZE DUP3 MSTORE RETURNDATASIZE PUSH0 PUSH1 0x20 DUP5 ADD RETURNDATACOPY PUSH2 0x413 JUMP JUMPDEST PUSH1 0x60 SWAP2 POP JUMPDEST POP POP SWAP1 POP DUP1 PUSH2 0x457 JUMPI PUSH1 0x40 MLOAD PUSH32 0x8C379A000000000000000000000000000000000000000000000000000000000 DUP2 MSTORE PUSH1 0x4 ADD PUSH2 0x44E SWAP1 PUSH2 0x940 JUMP JUMPDEST PUSH1 0x40 MLOAD DUP1 SWAP2 SUB SWAP1 REVERT JUMPDEST POP JUMP JUMPDEST PUSH1 0x1 PUSH1 0x20 MSTORE DUP1 PUSH0 MSTORE PUSH1 0x40 PUSH0 KECCAK256 PUSH0 SWAP2 POP SWAP1 POP SLOAD DUP2 JUMP JUMPDEST PUSH32 0x0 DUP2 JUMP JUMPDEST PUSH0 DUP2 DUP2 SLOAD DUP2 LT PUSH2 0x4A1 JUMPI PUSH0 DUP1 REVERT JUMPDEST SWAP1 PUSH0 MSTORE PUSH1 0x20 PUSH0 KECCAK256 ADD PUSH0 SWAP2 POP SLOAD SWAP1 PUSH2 0x100 EXP SWAP1 DIV PUSH20 0xFFFFFFFFFFFFFFFFFFFFFFFFFFFFFFFFFFFFFFFF AND DUP2 JUMP JUMPDEST PUSH0 DUP1 PUSH2 0x4D7 PUSH2 0x505 JUMP JUMPDEST SWAP1 POP PUSH0 PUSH8 0xDE0B6B3A7640000 DUP5 DUP4 PUSH2 0x4EF SWAP2 SWAP1 PUSH2 0x95E JUMP JUMPDEST PUSH2 0x4F9 SWAP2 SWAP1 PUSH2 0x9CC JUMP JUMPDEST SWAP1 POP DUP1 SWAP3 POP POP POP SWAP2 SWAP1 POP JUMP JUMPDEST PUSH0 DUP1 PUSH20 0xFEEFF7C3FB57D18C5C6CDD71E45D2D0B4F9377BF SWAP1 POP PUSH0 DUP2 PUSH20 0xFFFFFFFFFFFFFFFFFFFFFFFFFFFFFFFFFFFFFFFF AND PUSH4 0xFEAF968C PUSH1 0x40 MLOAD DUP2 PUSH4 0xFFFFFFFF AND PUSH1 0xE0 SHL DUP2 MSTORE PUSH1 0x4 ADD PUSH1 0xA0 PUSH1 0x40 MLOAD DUP1 DUP4 SUB DUP2 DUP7 GAS STATICCALL ISZERO DUP1 ISZERO PUSH2 0x568 JUMPI RETURNDATASIZE PUSH0 DUP1 RETURNDATACOPY RETURNDATASIZE PUSH0 REVERT JUMPDEST POP POP POP POP PUSH1 0x40 MLOAD RETURNDATASIZE PUSH1 0x1F NOT PUSH1 0x1F DUP3 ADD AND DUP3 ADD DUP1 PUSH1 0x40 MSTORE POP DUP2 ADD SWAP1 PUSH2 0x58C SWAP2 SWAP1 PUSH2 0xA82 JUMP JUMPDEST POP POP POP SWAP2 POP POP PUSH5 0x2540BE400 DUP2 PUSH2 0x5A3 SWAP2 SWAP1 PUSH2 0xAF9 JUMP JUMPDEST SWAP3 POP POP POP SWAP1 JUMP JUMPDEST DUP3 DUP1 SLOAD DUP3 DUP3 SSTORE SWAP1 PUSH0 MSTORE PUSH1 0x20 PUSH0 KECCAK256 SWAP1 DUP2 ADD SWAP3 DUP3 ISZERO PUSH2 0x620 JUMPI SWAP2 PUSH1 0x20 MUL DUP3 ADD JUMPDEST DUP3 DUP2 GT ISZERO PUSH2 0x61F JUMPI DUP3 MLOAD DUP3 PUSH0 PUSH2 0x100 EXP DUP2 SLOAD DUP2 PUSH20 0xFFFFFFFFFFFFFFFFFFFFFFFFFFFFFFFFFFFFFFFF MUL NOT AND SWAP1 DUP4 PUSH20 0xFFFFFFFFFFFFFFFFFFFFFFFFFFFFFFFFFFFFFFFF AND MUL OR SWAP1 SSTORE POP SWAP2 PUSH1 0x20 ADD SWAP2 SWAP1 PUSH1 0x1 ADD SWAP1 PUSH2 0x5C8 JUMP JUMPDEST JUMPDEST POP SWAP1 POP PUSH2 0x62D SWAP2 SWAP1 PUSH2 0x631 JUMP JUMPDEST POP SWAP1 JUMP JUMPDEST JUMPDEST DUP1 DUP3 GT ISZERO PUSH2 0x648 JUMPI PUSH0 DUP2 PUSH0 SWAP1 SSTORE POP PUSH1 0x1 ADD PUSH2 0x632 JUMP JUMPDEST POP SWAP1 JUMP JUMPDEST PUSH0 DUP1 REVERT JUMPDEST PUSH0 PUSH20 0xFFFFFFFFFFFFFFFFFFFFFFFFFFFFFFFFFFFFFFFF DUP3 AND SWAP1 POP SWAP2 SWAP1 POP JUMP JUMPDEST PUSH0 PUSH2 0x679 DUP3 PUSH2 0x650 JUMP JUMPDEST SWAP1 POP SWAP2 SWAP1 POP JUMP JUMPDEST PUSH2 0x689 DUP2 PUSH2 0x66F JUMP JUMPDEST DUP2 EQ PUSH2 0x693 JUMPI PUSH0 DUP1 REVERT JUMPDEST POP JUMP JUMPDEST PUSH0 DUP2 CALLDATALOAD SWAP1 POP PUSH2 0x6A4 DUP2 PUSH2 0x680 JUMP JUMPDEST SWAP3 SWAP2 POP POP JUMP JUMPDEST PUSH0 PUSH1 0x20 DUP3 DUP5 SUB SLT ISZERO PUSH2 0x6BF JUMPI PUSH2 0x6BE PUSH2 0x64C JUMP JUMPDEST JUMPDEST PUSH0 PUSH2 0x6CC DUP5 DUP3 DUP6 ADD PUSH2 0x696 JUMP JUMPDEST SWAP2 POP POP SWAP3 SWAP2 POP POP JUMP JUMPDEST PUSH0 DUP2 SWAP1 POP SWAP2 SWAP1 POP JUMP JUMPDEST PUSH2 0x6E7 DUP2 PUSH2 0x6D5 JUMP JUMPDEST DUP3 MSTORE POP POP JUMP JUMPDEST PUSH0 PUSH1 0x20 DUP3 ADD SWAP1 POP PUSH2 0x700 PUSH0 DUP4 ADD DUP5 PUSH2 0x6DE JUMP JUMPDEST SWAP3 SWAP2 POP POP JUMP JUMPDEST PUSH2 0x70F DUP2 PUSH2 0x66F JUMP JUMPDEST DUP3 MSTORE POP POP JUMP JUMPDEST PUSH0 PUSH1 0x20 DUP3 ADD SWAP1 POP PUSH2 0x728 PUSH0 DUP4 ADD DUP5 PUSH2 0x706 JUMP JUMPDEST SWAP3 SWAP2 POP POP JUMP JUMPDEST PUSH2 0x737 DUP2 PUSH2 0x6D5 JUMP JUMPDEST DUP2 EQ PUSH2 0x741 JUMPI PUSH0 DUP1 REVERT JUMPDEST POP JUMP JUMPDEST PUSH0 DUP2 CALLDATALOAD SWAP1 POP PUSH2 0x752 DUP2 PUSH2 0x72E JUMP JUMPDEST SWAP3 SWAP2 POP POP JUMP JUMPDEST PUSH0 PUSH1 0x20 DUP3 DUP5 SUB SLT ISZERO PUSH2 0x76D JUMPI PUSH2 0x76C PUSH2 0x64C JUMP JUMPDEST JUMPDEST PUSH0 PUSH2 0x77A DUP5 DUP3 DUP6 ADD PUSH2 0x744 JUMP JUMPDEST SWAP2 POP POP SWAP3 SWAP2 POP POP JUMP JUMPDEST PUSH0 DUP3 DUP3 MSTORE PUSH1 0x20 DUP3 ADD SWAP1 POP SWAP3 SWAP2 POP POP JUMP JUMPDEST PUSH32 0x56616C7565206E6F742067726561746572207468616E20312065746865720000 PUSH0 DUP3 ADD MSTORE POP JUMP JUMPDEST PUSH0 PUSH2 0x7C7 PUSH1 0x1E DUP4 PUSH2 0x783 JUMP JUMPDEST SWAP2 POP PUSH2 0x7D2 DUP3 PUSH2 0x793 JUMP JUMPDEST PUSH1 0x20 DUP3 ADD SWAP1 POP SWAP2 SWAP1 POP JUMP JUMPDEST PUSH0 PUSH1 0x20 DUP3 ADD SWAP1 POP DUP2 DUP2 SUB PUSH0 DUP4 ADD MSTORE PUSH2 0x7F4 DUP2 PUSH2 0x7BB JUMP JUMPDEST SWAP1 POP SWAP2 SWAP1 POP JUMP JUMPDEST PUSH32 0x4E487B7100000000000000000000000000000000000000000000000000000000 PUSH0 MSTORE PUSH1 0x11 PUSH1 0x4 MSTORE PUSH1 0x24 PUSH0 REVERT JUMPDEST PUSH0 PUSH2 0x832 DUP3 PUSH2 0x6D5 JUMP JUMPDEST SWAP2 POP PUSH2 0x83D DUP4 PUSH2 0x6D5 JUMP JUMPDEST SWAP3 POP DUP3 DUP3 ADD SWAP1 POP DUP1 DUP3 GT ISZERO PUSH2 0x855 JUMPI PUSH2 0x854 PUSH2 0x7FB JUMP JUMPDEST JUMPDEST SWAP3 SWAP2 POP POP JUMP JUMPDEST PUSH32 0x4E487B7100000000000000000000000000000000000000000000000000000000 PUSH0 MSTORE PUSH1 0x32 PUSH1 0x4 MSTORE PUSH1 0x24 PUSH0 REVERT JUMPDEST PUSH32 0x4E487B7100000000000000000000000000000000000000000000000000000000 PUSH0 MSTORE PUSH1 0x41 PUSH1 0x4 MSTORE PUSH1 0x24 PUSH0 REVERT JUMPDEST PUSH0 DUP2 SWAP1 POP SWAP3 SWAP2 POP POP JUMP JUMPDEST POP JUMP JUMPDEST PUSH0 PUSH2 0x8CD PUSH0 DUP4 PUSH2 0x8B5 JUMP JUMPDEST SWAP2 POP PUSH2 0x8D8 DUP3 PUSH2 0x8BF JUMP JUMPDEST PUSH0 DUP3 ADD SWAP1 POP SWAP2 SWAP1 POP JUMP JUMPDEST PUSH0 PUSH2 0x8EC DUP3 PUSH2 0x8C2 JUMP JUMPDEST SWAP2 POP DUP2 SWAP1 POP SWAP2 SWAP1 POP JUMP JUMPDEST PUSH32 0x43616C6C204661696C6564000000000000000000000000000000000000000000 PUSH0 DUP3 ADD MSTORE POP JUMP JUMPDEST PUSH0 PUSH2 0x92A PUSH1 0xB DUP4 PUSH2 0x783 JUMP JUMPDEST SWAP2 POP PUSH2 0x935 DUP3 PUSH2 0x8F6 JUMP JUMPDEST PUSH1 0x20 DUP3 ADD SWAP1 POP SWAP2 SWAP1 POP JUMP JUMPDEST PUSH0 PUSH1 0x20 DUP3 ADD SWAP1 POP DUP2 DUP2 SUB PUSH0 DUP4 ADD MSTORE PUSH2 0x957 DUP2 PUSH2 0x91E JUMP JUMPDEST SWAP1 POP SWAP2 SWAP1 POP JUMP JUMPDEST PUSH0 PUSH2 0x968 DUP3 PUSH2 0x6D5 JUMP JUMPDEST SWAP2 POP PUSH2 0x973 DUP4 PUSH2 0x6D5 JUMP JUMPDEST SWAP3 POP DUP3 DUP3 MUL PUSH2 0x981 DUP2 PUSH2 0x6D5 JUMP JUMPDEST SWAP2 POP DUP3 DUP3 DIV DUP5 EQ DUP4 ISZERO OR PUSH2 0x998 JUMPI PUSH2 0x997 PUSH2 0x7FB JUMP JUMPDEST JUMPDEST POP SWAP3 SWAP2 POP POP JUMP JUMPDEST PUSH32 0x4E487B7100000000000000000000000000000000000000000000000000000000 PUSH0 MSTORE PUSH1 0x12 PUSH1 0x4 MSTORE PUSH1 0x24 PUSH0 REVERT JUMPDEST PUSH0 PUSH2 0x9D6 DUP3 PUSH2 0x6D5 JUMP JUMPDEST SWAP2 POP PUSH2 0x9E1 DUP4 PUSH2 0x6D5 JUMP JUMPDEST SWAP3 POP DUP3 PUSH2 0x9F1 JUMPI PUSH2 0x9F0 PUSH2 0x99F JUMP JUMPDEST JUMPDEST DUP3 DUP3 DIV SWAP1 POP SWAP3 SWAP2 POP POP JUMP JUMPDEST PUSH0 PUSH10 0xFFFFFFFFFFFFFFFFFFFF DUP3 AND SWAP1 POP SWAP2 SWAP1 POP JUMP JUMPDEST PUSH2 0xA1A DUP2 PUSH2 0x9FC JUMP JUMPDEST DUP2 EQ PUSH2 0xA24 JUMPI PUSH0 DUP1 REVERT JUMPDEST POP JUMP JUMPDEST PUSH0 DUP2 MLOAD SWAP1 POP PUSH2 0xA35 DUP2 PUSH2 0xA11 JUMP JUMPDEST SWAP3 SWAP2 POP POP JUMP JUMPDEST PUSH0 DUP2 SWAP1 POP SWAP2 SWAP1 POP JUMP JUMPDEST PUSH2 0xA4D DUP2 PUSH2 0xA3B JUMP JUMPDEST DUP2 EQ PUSH2 0xA57 JUMPI PUSH0 DUP1 REVERT JUMPDEST POP JUMP JUMPDEST PUSH0 DUP2 MLOAD SWAP1 POP PUSH2 0xA68 DUP2 PUSH2 0xA44 JUMP JUMPDEST SWAP3 SWAP2 POP POP JUMP JUMPDEST PUSH0 DUP2 MLOAD SWAP1 POP PUSH2 0xA7C DUP2 PUSH2 0x72E JUMP JUMPDEST SWAP3 SWAP2 POP POP JUMP JUMPDEST PUSH0 DUP1 PUSH0 DUP1 PUSH0 PUSH1 0xA0 DUP7 DUP9 SUB SLT ISZERO PUSH2 0xA9B JUMPI PUSH2 0xA9A PUSH2 0x64C JUMP JUMPDEST JUMPDEST PUSH0 PUSH2 0xAA8 DUP9 DUP3 DUP10 ADD PUSH2 0xA27 JUMP JUMPDEST SWAP6 POP POP PUSH1 0x20 PUSH2 0xAB9 DUP9 DUP3 DUP10 ADD PUSH2 0xA5A JUMP JUMPDEST SWAP5 POP POP PUSH1 0x40 PUSH2 0xACA DUP9 DUP3 DUP10 ADD PUSH2 0xA6E JUMP JUMPDEST SWAP4 POP POP PUSH1 0x60 PUSH2 0xADB DUP9 DUP3 DUP10 ADD PUSH2 0xA6E JUMP JUMPDEST SWAP3 POP POP PUSH1 0x80 PUSH2 0xAEC DUP9 DUP3 DUP10 ADD PUSH2 0xA27 JUMP JUMPDEST SWAP2 POP POP SWAP3 SWAP6 POP SWAP3 SWAP6 SWAP1 SWAP4 POP JUMP JUMPDEST PUSH0 PUSH2 0xB03 DUP3 PUSH2 0xA3B JUMP JUMPDEST SWAP2 POP PUSH2 0xB0E DUP4 PUSH2 0xA3B JUMP JUMPDEST SWAP3 POP DUP3 DUP3 MUL PUSH2 0xB1C DUP2 PUSH2 0xA3B JUMP JUMPDEST SWAP2 POP PUSH32 0x8000000000000000000000000000000000000000000000000000000000000000 DUP5 EQ PUSH0 DUP5 SLT AND ISZERO PUSH2 0xB53 JUMPI PUSH2 0xB52 PUSH2 0x7FB JUMP JUMPDEST JUMPDEST DUP3 DUP3 SDIV DUP5 EQ DUP4 ISZERO OR PUSH2 0xB68 JUMPI PUSH2 0xB67 PUSH2 0x7FB JUMP JUMPDEST JUMPDEST POP SWAP3 SWAP2 POP POP JUMP INVALID LOG2 PUSH5 0x6970667358 0x22 SLT KECCAK256 0xE6 0xE7 0xF7 PUSH21 0xB344121C12FE55C3A8174F4B36CB132EB65C8F0B51 0xC7 RETURN SDIV 0xD8 0xAE 0xAF PUSH24 0x64736F6C634300081A003300000000000000000000000000 "
				},
				"gasEstimates": {
					"creation": {
						"codeDepositCost": "596200",
						"executionCost": "infinite",
						"totalCost": "infinite"
					},
					"external": {
						"": "infinite",
						"I_owner()": "infinite",
						"addressToAmountFunded(address)": "2802",
						"fund()": "infinite",
						"funders(uint256)": "5009",
						"withdraw()": "infinite"
					}
				},
				"methodIdentifiers": {
					"I_owner()": "c698d625",
					"addressToAmountFunded(address)": "3e47d6f3",
					"fund()": "b60d4288",
					"funders(uint256)": "dc0d3dff",
					"withdraw()": "3ccfd60b"
				}
			},
			"storageLayout": {
				"storage": [
					{
						"astId": 60,
						"contract": "FundMe/fundme.sol:FundMe",
						"label": "funders",
						"offset": 0,
						"slot": "0",
						"type": "t_array(t_address)dyn_storage"
					},
					{
						"astId": 64,
						"contract": "FundMe/fundme.sol:FundMe",
						"label": "addressToAmountFunded",
						"offset": 0,
						"slot": "1",
						"type": "t_mapping(t_address,t_uint256)"
					}
				],
				"types": {
					"t_address": {
						"encoding": "inplace",
						"label": "address",
						"numberOfBytes": "20"
					},
					"t_array(t_address)dyn_storage": {
						"base": "t_address",
						"encoding": "dynamic_array",
						"label": "address[]",
						"numberOfBytes": "32"
					},
					"t_mapping(t_address,t_uint256)": {
						"encoding": "mapping",
						"key": "t_address",
						"label": "mapping(address => uint256)",
						"numberOfBytes": "32",
						"value": "t_uint256"
					},
					"t_uint256": {
						"encoding": "inplace",
						"label": "uint256",
						"numberOfBytes": "32"
					}
				}
			},
			"userdoc": {
				"kind": "user",
				"methods": {},
				"version": 1
			}
		}
	}
}